{
  "_format": "hh-sol-artifact-1",
  "contractName": "ERC721Template",
  "sourceName": "contracts/templates/ERC721Template.sol",
  "abi": [
    {
      "anonymous": false,
      "inputs": [
        {
          "indexed": true,
          "internalType": "address",
          "name": "user",
          "type": "address"
        },
        {
          "indexed": true,
          "internalType": "address",
          "name": "signer",
          "type": "address"
        },
        {
          "indexed": false,
          "internalType": "uint256",
          "name": "timestamp",
          "type": "uint256"
        },
        {
          "indexed": false,
          "internalType": "uint256",
          "name": "blockNumber",
          "type": "uint256"
        }
      ],
      "name": "AddedManager",
      "type": "event"
    },
    {
      "anonymous": false,
      "inputs": [
        {
          "indexed": true,
          "internalType": "address",
          "name": "user",
          "type": "address"
        },
        {
          "indexed": true,
          "internalType": "address",
          "name": "signer",
          "type": "address"
        },
        {
          "indexed": false,
          "internalType": "uint256",
          "name": "timestamp",
          "type": "uint256"
        },
        {
          "indexed": false,
          "internalType": "uint256",
          "name": "blockNumber",
          "type": "uint256"
        }
      ],
      "name": "AddedTo725StoreList",
      "type": "event"
    },
    {
      "anonymous": false,
      "inputs": [
        {
          "indexed": true,
          "internalType": "address",
          "name": "user",
          "type": "address"
        },
        {
          "indexed": true,
          "internalType": "address",
          "name": "signer",
          "type": "address"
        },
        {
          "indexed": false,
          "internalType": "uint256",
          "name": "timestamp",
          "type": "uint256"
        },
        {
          "indexed": false,
          "internalType": "uint256",
          "name": "blockNumber",
          "type": "uint256"
        }
      ],
      "name": "AddedToCreateERC20List",
      "type": "event"
    },
    {
      "anonymous": false,
      "inputs": [
        {
          "indexed": true,
          "internalType": "address",
          "name": "user",
          "type": "address"
        },
        {
          "indexed": true,
          "internalType": "address",
          "name": "signer",
          "type": "address"
        },
        {
          "indexed": false,
          "internalType": "uint256",
          "name": "timestamp",
          "type": "uint256"
        },
        {
          "indexed": false,
          "internalType": "uint256",
          "name": "blockNumber",
          "type": "uint256"
        }
      ],
      "name": "AddedToMetadataList",
      "type": "event"
    },
    {
      "anonymous": false,
      "inputs": [
        {
          "indexed": true,
          "internalType": "address",
          "name": "user",
          "type": "address"
        },
        {
          "indexed": true,
          "internalType": "address",
          "name": "signer",
          "type": "address"
        },
        {
          "indexed": false,
          "internalType": "uint256",
          "name": "timestamp",
          "type": "uint256"
        },
        {
          "indexed": false,
          "internalType": "uint256",
          "name": "blockNumber",
          "type": "uint256"
        }
      ],
      "name": "AddedV3Minter",
      "type": "event"
    },
    {
      "anonymous": false,
      "inputs": [
        {
          "indexed": true,
          "internalType": "address",
          "name": "owner",
          "type": "address"
        },
        {
          "indexed": true,
          "internalType": "address",
          "name": "approved",
          "type": "address"
        },
        {
          "indexed": true,
          "internalType": "uint256",
          "name": "tokenId",
          "type": "uint256"
        }
      ],
      "name": "Approval",
      "type": "event"
    },
    {
      "anonymous": false,
      "inputs": [
        {
          "indexed": true,
          "internalType": "address",
          "name": "owner",
          "type": "address"
        },
        {
          "indexed": true,
          "internalType": "address",
          "name": "operator",
          "type": "address"
        },
        {
          "indexed": false,
          "internalType": "bool",
          "name": "approved",
          "type": "bool"
        }
      ],
      "name": "ApprovalForAll",
      "type": "event"
    },
    {
      "anonymous": false,
      "inputs": [
        {
          "indexed": true,
          "internalType": "address",
          "name": "signer",
          "type": "address"
        },
        {
          "indexed": false,
          "internalType": "uint256",
          "name": "timestamp",
          "type": "uint256"
        },
        {
          "indexed": false,
          "internalType": "uint256",
          "name": "blockNumber",
          "type": "uint256"
        }
      ],
      "name": "CleanedPermissions",
      "type": "event"
    },
    {
      "anonymous": false,
      "inputs": [
        {
          "indexed": true,
          "internalType": "address",
          "name": "contractAddress",
          "type": "address"
        }
      ],
      "name": "ContractCreated",
      "type": "event"
    },
    {
      "anonymous": false,
      "inputs": [
        {
          "indexed": true,
          "internalType": "bytes32",
          "name": "key",
          "type": "bytes32"
        },
        {
          "indexed": false,
          "internalType": "bytes",
          "name": "value",
          "type": "bytes"
        }
      ],
      "name": "DataChanged",
      "type": "event"
    },
    {
      "anonymous": false,
      "inputs": [
        {
          "indexed": true,
          "internalType": "uint256",
          "name": "_operation",
          "type": "uint256"
        },
        {
          "indexed": true,
          "internalType": "address",
          "name": "_to",
          "type": "address"
        },
        {
          "indexed": true,
          "internalType": "uint256",
          "name": "_value",
          "type": "uint256"
        },
        {
          "indexed": false,
          "internalType": "bytes",
          "name": "_data",
          "type": "bytes"
        }
      ],
      "name": "Executed",
      "type": "event"
    },
    {
      "anonymous": false,
      "inputs": [
        {
          "indexed": true,
          "internalType": "address",
          "name": "createdBy",
          "type": "address"
        },
        {
          "indexed": false,
          "internalType": "uint8",
          "name": "state",
          "type": "uint8"
        },
        {
          "indexed": false,
          "internalType": "string",
          "name": "decryptorUrl",
          "type": "string"
        },
        {
          "indexed": false,
          "internalType": "bytes",
          "name": "flags",
          "type": "bytes"
        },
        {
          "indexed": false,
          "internalType": "bytes",
          "name": "data",
          "type": "bytes"
        },
        {
          "indexed": false,
          "internalType": "bytes",
          "name": "metaDataHash",
          "type": "bytes"
        },
        {
          "indexed": false,
          "internalType": "uint256",
          "name": "timestamp",
          "type": "uint256"
        },
        {
          "indexed": false,
          "internalType": "uint256",
          "name": "blockNumber",
          "type": "uint256"
        }
      ],
      "name": "MetadataCreated",
      "type": "event"
    },
    {
      "anonymous": false,
      "inputs": [
        {
          "indexed": true,
          "internalType": "address",
          "name": "updatedBy",
          "type": "address"
        },
        {
          "indexed": false,
          "internalType": "uint8",
          "name": "state",
          "type": "uint8"
        },
        {
          "indexed": false,
          "internalType": "string",
          "name": "decryptorUrl",
          "type": "string"
        },
        {
          "indexed": false,
          "internalType": "bytes",
          "name": "flags",
          "type": "bytes"
        },
        {
          "indexed": false,
          "internalType": "bytes",
          "name": "data",
          "type": "bytes"
        },
        {
          "indexed": false,
          "internalType": "bytes",
          "name": "metaDataHash",
          "type": "bytes"
        },
        {
          "indexed": false,
          "internalType": "uint256",
          "name": "timestamp",
          "type": "uint256"
        },
        {
          "indexed": false,
          "internalType": "uint256",
          "name": "blockNumber",
          "type": "uint256"
        }
      ],
      "name": "MetadataUpdated",
      "type": "event"
    },
    {
      "anonymous": false,
      "inputs": [
        {
          "indexed": true,
          "internalType": "address",
          "name": "user",
          "type": "address"
        },
        {
          "indexed": true,
          "internalType": "address",
          "name": "signer",
          "type": "address"
        },
        {
          "indexed": false,
          "internalType": "uint256",
          "name": "timestamp",
          "type": "uint256"
        },
        {
          "indexed": false,
          "internalType": "uint256",
          "name": "blockNumber",
          "type": "uint256"
        }
      ],
      "name": "RemovedFrom725StoreList",
      "type": "event"
    },
    {
      "anonymous": false,
      "inputs": [
        {
          "indexed": true,
          "internalType": "address",
          "name": "user",
          "type": "address"
        },
        {
          "indexed": true,
          "internalType": "address",
          "name": "signer",
          "type": "address"
        },
        {
          "indexed": false,
          "internalType": "uint256",
          "name": "timestamp",
          "type": "uint256"
        },
        {
          "indexed": false,
          "internalType": "uint256",
          "name": "blockNumber",
          "type": "uint256"
        }
      ],
      "name": "RemovedFromCreateERC20List",
      "type": "event"
    },
    {
      "anonymous": false,
      "inputs": [
        {
          "indexed": true,
          "internalType": "address",
          "name": "user",
          "type": "address"
        },
        {
          "indexed": true,
          "internalType": "address",
          "name": "signer",
          "type": "address"
        },
        {
          "indexed": false,
          "internalType": "uint256",
          "name": "timestamp",
          "type": "uint256"
        },
        {
          "indexed": false,
          "internalType": "uint256",
          "name": "blockNumber",
          "type": "uint256"
        }
      ],
      "name": "RemovedFromMetadataList",
      "type": "event"
    },
    {
      "anonymous": false,
      "inputs": [
        {
          "indexed": true,
          "internalType": "address",
          "name": "user",
          "type": "address"
        },
        {
          "indexed": true,
          "internalType": "address",
          "name": "signer",
          "type": "address"
        },
        {
          "indexed": false,
          "internalType": "uint256",
          "name": "timestamp",
          "type": "uint256"
        },
        {
          "indexed": false,
          "internalType": "uint256",
          "name": "blockNumber",
          "type": "uint256"
        }
      ],
      "name": "RemovedManager",
      "type": "event"
    },
    {
      "anonymous": false,
      "inputs": [
        {
          "indexed": true,
          "internalType": "address",
          "name": "user",
          "type": "address"
        },
        {
          "indexed": true,
          "internalType": "address",
          "name": "signer",
          "type": "address"
        },
        {
          "indexed": false,
          "internalType": "uint256",
          "name": "timestamp",
          "type": "uint256"
        },
        {
          "indexed": false,
          "internalType": "uint256",
          "name": "blockNumber",
          "type": "uint256"
        }
      ],
      "name": "RemovedV3Minter",
      "type": "event"
    },
    {
      "anonymous": false,
      "inputs": [
        {
          "indexed": true,
          "internalType": "address",
          "name": "newTokenAddress",
          "type": "address"
        },
        {
          "indexed": true,
          "internalType": "address",
          "name": "templateAddress",
          "type": "address"
        },
        {
          "indexed": true,
          "internalType": "string",
          "name": "tokenName",
          "type": "string"
        }
      ],
      "name": "TokenCreated",
      "type": "event"
    },
    {
      "anonymous": false,
      "inputs": [
        {
          "indexed": true,
          "internalType": "address",
          "name": "from",
          "type": "address"
        },
        {
          "indexed": true,
          "internalType": "address",
          "name": "to",
          "type": "address"
        },
        {
          "indexed": true,
          "internalType": "uint256",
          "name": "tokenId",
          "type": "uint256"
        }
      ],
      "name": "Transfer",
      "type": "event"
    },
    {
      "stateMutability": "payable",
      "type": "fallback"
    },
    {
      "inputs": [
        {
          "internalType": "address",
          "name": "_managerAddress",
          "type": "address"
        }
      ],
      "name": "addManager",
      "outputs": [],
      "stateMutability": "nonpayable",
      "type": "function"
    },
    {
      "inputs": [
        {
          "internalType": "address",
          "name": "_allowedAddress",
          "type": "address"
        }
      ],
      "name": "addTo725StoreList",
      "outputs": [],
      "stateMutability": "nonpayable",
      "type": "function"
    },
    {
      "inputs": [
        {
          "internalType": "address",
          "name": "_allowedAddress",
          "type": "address"
        }
      ],
      "name": "addToCreateERC20List",
      "outputs": [],
      "stateMutability": "nonpayable",
      "type": "function"
    },
    {
      "inputs": [
        {
          "internalType": "address",
          "name": "_allowedAddress",
          "type": "address"
        }
      ],
      "name": "addToMetadataList",
      "outputs": [],
      "stateMutability": "nonpayable",
      "type": "function"
    },
    {
      "inputs": [
        {
          "internalType": "address",
          "name": "to",
          "type": "address"
        },
        {
          "internalType": "uint256",
          "name": "tokenId",
          "type": "uint256"
        }
      ],
      "name": "approve",
      "outputs": [],
      "stateMutability": "nonpayable",
      "type": "function"
    },
    {
      "inputs": [
        {
          "internalType": "uint256",
          "name": "",
          "type": "uint256"
        }
      ],
      "name": "auth",
      "outputs": [
        {
          "internalType": "address",
          "name": "",
          "type": "address"
        }
      ],
      "stateMutability": "view",
      "type": "function"
    },
    {
      "inputs": [
        {
          "internalType": "address",
          "name": "owner",
          "type": "address"
        }
      ],
      "name": "balanceOf",
      "outputs": [
        {
          "internalType": "uint256",
          "name": "",
          "type": "uint256"
        }
      ],
      "stateMutability": "view",
      "type": "function"
    },
    {
      "inputs": [],
      "name": "cleanPermissions",
      "outputs": [],
      "stateMutability": "nonpayable",
      "type": "function"
    },
    {
      "inputs": [
        {
          "internalType": "uint256",
          "name": "_templateIndex",
          "type": "uint256"
        },
        {
          "internalType": "string[]",
          "name": "strings",
          "type": "string[]"
        },
        {
          "internalType": "address[]",
          "name": "addresses",
          "type": "address[]"
        },
        {
          "internalType": "uint256[]",
          "name": "uints",
          "type": "uint256[]"
        },
        {
          "internalType": "bytes[]",
          "name": "bytess",
          "type": "bytes[]"
        }
      ],
      "name": "createERC20",
      "outputs": [
        {
          "internalType": "address",
          "name": "",
          "type": "address"
        }
      ],
      "stateMutability": "nonpayable",
      "type": "function"
    },
    {
      "inputs": [
        {
          "internalType": "uint256",
          "name": "_operation",
          "type": "uint256"
        },
        {
          "internalType": "address",
          "name": "_to",
          "type": "address"
        },
        {
          "internalType": "uint256",
          "name": "_value",
          "type": "uint256"
        },
        {
          "internalType": "bytes",
          "name": "_data",
          "type": "bytes"
        }
      ],
      "name": "executeCall",
      "outputs": [],
      "stateMutability": "payable",
      "type": "function"
    },
    {
      "inputs": [
        {
          "internalType": "uint256",
          "name": "tokenId",
          "type": "uint256"
        }
      ],
      "name": "getApproved",
      "outputs": [
        {
          "internalType": "address",
          "name": "",
          "type": "address"
        }
      ],
      "stateMutability": "view",
      "type": "function"
    },
    {
      "inputs": [
        {
          "internalType": "bytes32",
          "name": "_key",
          "type": "bytes32"
        }
      ],
      "name": "getData",
      "outputs": [
        {
          "internalType": "bytes",
          "name": "_value",
          "type": "bytes"
        }
      ],
      "stateMutability": "view",
      "type": "function"
    },
    {
      "inputs": [],
      "name": "getMetaData",
      "outputs": [
        {
          "internalType": "string",
          "name": "",
          "type": "string"
        },
        {
          "internalType": "string",
          "name": "",
          "type": "string"
        },
        {
          "internalType": "uint8",
          "name": "",
          "type": "uint8"
        },
        {
          "internalType": "bool",
          "name": "",
          "type": "bool"
        }
      ],
      "stateMutability": "view",
      "type": "function"
    },
    {
      "inputs": [
        {
          "internalType": "address",
          "name": "user",
          "type": "address"
        }
      ],
      "name": "getPermissions",
      "outputs": [
        {
          "components": [
            {
              "internalType": "bool",
              "name": "manager",
              "type": "bool"
            },
            {
              "internalType": "bool",
              "name": "deployERC20",
              "type": "bool"
            },
            {
              "internalType": "bool",
              "name": "updateMetadata",
              "type": "bool"
            },
            {
              "internalType": "bool",
              "name": "store",
              "type": "bool"
            },
            {
              "internalType": "bool",
              "name": "v3Minter",
              "type": "bool"
            }
          ],
          "internalType": "struct ERC721RolesAddress.Roles",
          "name": "",
          "type": "tuple"
        }
      ],
      "stateMutability": "view",
      "type": "function"
    },
    {
      "inputs": [],
      "name": "getTokensList",
      "outputs": [
        {
          "internalType": "address[]",
          "name": "",
          "type": "address[]"
        }
      ],
      "stateMutability": "view",
      "type": "function"
    },
    {
      "inputs": [],
      "name": "hasMetaData",
      "outputs": [
        {
          "internalType": "bool",
          "name": "",
          "type": "bool"
        }
      ],
      "stateMutability": "view",
      "type": "function"
    },
    {
      "inputs": [
        {
          "internalType": "address",
          "name": "owner",
          "type": "address"
        },
        {
          "internalType": "string",
          "name": "name_",
          "type": "string"
        },
        {
          "internalType": "string",
          "name": "symbol_",
          "type": "string"
        },
        {
          "internalType": "address",
          "name": "tokenFactory",
          "type": "address"
        },
        {
          "internalType": "address",
          "name": "additionalERC20Deployer",
          "type": "address"
        }
      ],
      "name": "initialize",
      "outputs": [
        {
          "internalType": "bool",
          "name": "",
          "type": "bool"
        }
      ],
      "stateMutability": "nonpayable",
      "type": "function"
    },
    {
      "inputs": [
        {
          "internalType": "address",
          "name": "owner",
          "type": "address"
        },
        {
          "internalType": "address",
          "name": "operator",
          "type": "address"
        }
      ],
      "name": "isApprovedForAll",
      "outputs": [
        {
          "internalType": "bool",
          "name": "",
          "type": "bool"
        }
      ],
      "stateMutability": "view",
      "type": "function"
    },
    {
      "inputs": [
        {
          "internalType": "address",
          "name": "datatoken",
          "type": "address"
        }
      ],
      "name": "isDeployed",
      "outputs": [
        {
          "internalType": "bool",
          "name": "",
          "type": "bool"
        }
      ],
      "stateMutability": "view",
      "type": "function"
    },
    {
      "inputs": [],
      "name": "isInitialized",
      "outputs": [
        {
          "internalType": "bool",
          "name": "",
          "type": "bool"
        }
      ],
      "stateMutability": "view",
      "type": "function"
    },
    {
      "inputs": [],
      "name": "metaDataDecryptorAddress",
      "outputs": [
        {
          "internalType": "string",
          "name": "",
          "type": "string"
        }
      ],
      "stateMutability": "view",
      "type": "function"
    },
    {
      "inputs": [],
      "name": "metaDataDecryptorUrl",
      "outputs": [
        {
          "internalType": "string",
          "name": "",
          "type": "string"
        }
      ],
      "stateMutability": "view",
      "type": "function"
    },
    {
      "inputs": [],
      "name": "metaDataState",
      "outputs": [
        {
          "internalType": "uint8",
          "name": "",
          "type": "uint8"
        }
      ],
      "stateMutability": "view",
      "type": "function"
    },
    {
      "inputs": [],
      "name": "name",
      "outputs": [
        {
          "internalType": "string",
          "name": "",
          "type": "string"
        }
      ],
      "stateMutability": "view",
      "type": "function"
    },
    {
      "inputs": [
        {
          "internalType": "uint256",
          "name": "tokenId",
          "type": "uint256"
        }
      ],
      "name": "ownerOf",
      "outputs": [
        {
          "internalType": "address",
          "name": "",
          "type": "address"
        }
      ],
      "stateMutability": "view",
      "type": "function"
    },
    {
      "inputs": [
        {
          "internalType": "address",
          "name": "_allowedAddress",
          "type": "address"
        }
      ],
      "name": "removeFrom725StoreList",
      "outputs": [],
      "stateMutability": "nonpayable",
      "type": "function"
    },
    {
      "inputs": [
        {
          "internalType": "address",
          "name": "_allowedAddress",
          "type": "address"
        }
      ],
      "name": "removeFromCreateERC20List",
      "outputs": [],
      "stateMutability": "nonpayable",
      "type": "function"
    },
    {
      "inputs": [
        {
          "internalType": "address",
          "name": "_allowedAddress",
          "type": "address"
        }
      ],
      "name": "removeFromMetadataList",
      "outputs": [],
      "stateMutability": "nonpayable",
      "type": "function"
    },
    {
      "inputs": [
        {
          "internalType": "address",
          "name": "_managerAddress",
          "type": "address"
        }
      ],
      "name": "removeManager",
      "outputs": [],
      "stateMutability": "nonpayable",
      "type": "function"
    },
    {
      "inputs": [
        {
          "internalType": "address",
          "name": "from",
          "type": "address"
        },
        {
          "internalType": "address",
          "name": "to",
          "type": "address"
        },
        {
          "internalType": "uint256",
          "name": "tokenId",
          "type": "uint256"
        }
      ],
      "name": "safeTransferFrom",
      "outputs": [],
      "stateMutability": "nonpayable",
      "type": "function"
    },
    {
      "inputs": [
        {
          "internalType": "address",
          "name": "operator",
          "type": "address"
        },
        {
          "internalType": "bool",
          "name": "approved",
          "type": "bool"
        }
      ],
      "name": "setApprovalForAll",
      "outputs": [],
      "stateMutability": "nonpayable",
      "type": "function"
    },
    {
      "inputs": [
        {
          "internalType": "bytes32",
          "name": "_key",
          "type": "bytes32"
        },
        {
          "internalType": "bytes",
          "name": "_value",
          "type": "bytes"
        }
      ],
      "name": "setDataERC20",
      "outputs": [],
      "stateMutability": "nonpayable",
      "type": "function"
    },
    {
      "inputs": [
        {
          "internalType": "uint8",
          "name": "_metaDataState",
          "type": "uint8"
        },
        {
          "internalType": "string",
          "name": "_metaDataDecryptorUrl",
          "type": "string"
        },
        {
          "internalType": "string",
          "name": "_metaDataDecryptorAddress",
          "type": "string"
        },
        {
          "internalType": "bytes",
          "name": "flags",
          "type": "bytes"
        },
        {
          "internalType": "bytes",
          "name": "data",
          "type": "bytes"
        },
        {
          "internalType": "bytes",
          "name": "_metaDataHash",
          "type": "bytes"
        }
      ],
      "name": "setMetaData",
      "outputs": [],
      "stateMutability": "nonpayable",
      "type": "function"
    },
    {
      "inputs": [
        {
          "internalType": "bytes32",
          "name": "_key",
          "type": "bytes32"
        },
        {
          "internalType": "bytes",
          "name": "_value",
          "type": "bytes"
        }
      ],
      "name": "setNewData",
      "outputs": [],
      "stateMutability": "nonpayable",
      "type": "function"
    },
    {
      "inputs": [],
      "name": "ssContract",
      "outputs": [
        {
          "internalType": "address",
          "name": "",
          "type": "address"
        }
      ],
      "stateMutability": "view",
      "type": "function"
    },
    {
      "inputs": [
        {
          "internalType": "bytes4",
          "name": "interfaceId",
          "type": "bytes4"
        }
      ],
      "name": "supportsInterface",
      "outputs": [
        {
          "internalType": "bool",
          "name": "",
          "type": "bool"
        }
      ],
      "stateMutability": "view",
      "type": "function"
    },
    {
      "inputs": [],
      "name": "symbol",
      "outputs": [
        {
          "internalType": "string",
          "name": "",
          "type": "string"
        }
      ],
      "stateMutability": "view",
      "type": "function"
    },
    {
      "inputs": [
        {
          "internalType": "uint256",
          "name": "tokenId",
          "type": "uint256"
        }
      ],
      "name": "tokenURI",
      "outputs": [
        {
          "internalType": "string",
          "name": "",
          "type": "string"
        }
      ],
      "stateMutability": "view",
      "type": "function"
    },
    {
      "inputs": [
        {
          "internalType": "address",
          "name": "from",
          "type": "address"
        },
        {
          "internalType": "address",
          "name": "to",
          "type": "address"
        },
        {
          "internalType": "uint256",
          "name": "tokenId",
          "type": "uint256"
        }
      ],
      "name": "transferFrom",
      "outputs": [],
      "stateMutability": "nonpayable",
      "type": "function"
    },
    {
      "inputs": [],
      "name": "withdrawETH",
      "outputs": [],
      "stateMutability": "payable",
      "type": "function"
    }
  ],
  "bytecode": "0x60806040523480156200001157600080fd5b50604080518082018252600881526754656d706c61746560c01b60208083019182528351808501909452600e84526d15195b5c1b185d1954de5b589bdb60921b908401528151919291620000689160009162000131565b5080516200007e90600190602084019062000131565b50620000959150632260147f60e11b9050620000ad565b620000a7632bd57b7360e01b620000ad565b62000214565b6001600160e01b031980821614156200010c5760405162461bcd60e51b815260206004820152601c60248201527f4552433136353a20696e76616c696420696e7465726661636520696400000000604482015260640160405180910390fd5b6001600160e01b0319166000908152600860205260409020805460ff19166001179055565b8280546200013f90620001d7565b90600052602060002090601f016020900481019282620001635760008555620001ae565b82601f106200017e57805160ff1916838001178555620001ae565b82800160010185558215620001ae579182015b82811115620001ae57825182559160200191906001019062000191565b50620001bc929150620001c0565b5090565b5b80821115620001bc5760008155600101620001c1565b600181811c90821680620001ec57607f821691505b602082108114156200020e57634e487b7160e01b600052602260045260246000fd5b50919050565b613bce80620002246000396000f3fe6080604052600436106102265760003560e01c80635d5dea2411610122578063b0c41ead116100a5578063d8053ad31161006c578063d8053ad314610796578063e086e5ec146107b5578063e38d7cad146107bd578063e985e9c5146107dd578063fe1ec8801461082657005b8063b0c41ead146106f2578063c55f812614610712578063c87b56dd14610725578063ccd7d47614610745578063d2786ba41461077157005b806382cf129d116100e957806382cf129d1461064f57806390184b021461066457806395d89b411461069d578063a22cb465146106b2578063ac18de43146106d257005b80635d5dea24146105a15780636352211e146105c157806367530a61146105e15780636cf1dbed1461060157806370a082311461062157005b8063273e06b3116101aa578063466bca0211610171578063466bca021461050a5780634a63740a1461052c5780634b2ee5e91461054c5780634f189cb21461056c57806354f6127f1461058157005b8063273e06b3146104725780632d06177a14610492578063392e53cd146104b257806342842e0e146104ca578063431053ac146104ea57005b80630e57c7e8116101ee5780630e57c7e8146102ec57806310c558bf1461030c578063160a79251461032c57806319c186e51461043257806323b872dd1461045257005b806301ffc9a71461022857806306fdde031461025d578063081812fc1461027f578063095ea7b3146102b75780630e05662e146102d7575b005b34801561023457600080fd5b50610248610243366004613286565b610846565b60405190151581526020015b60405180910390f35b34801561026957600080fd5b50610272610886565b60405161025491906136ff565b34801561028b57600080fd5b5061029f61029a366004613221565b610918565b6040516001600160a01b039091168152602001610254565b3480156102c357600080fd5b506102266102d23660046131f5565b6109b2565b3480156102e357600080fd5b50610272610ac8565b3480156102f857600080fd5b5061022661030736600461323a565b610b56565b34801561031857600080fd5b50610226610327366004613065565b610bd0565b34801561033857600080fd5b506103e6610347366004613065565b6040805160a081018252600080825260208201819052918101829052606081018290526080810191909152506001600160a01b0316600090815260066020908152604091829020825160a081018452905460ff8082161515835261010082048116151593830193909352620100008104831615159382019390935263010000008304821615156060820152640100000000909204161515608082015290565b6040516102549190600060a08201905082511515825260208301511515602083015260408301511515604083015260608301511515606083015260808301511515608083015292915050565b34801561043e57600080fd5b5061022661044d366004613065565b610ca3565b34801561045e57600080fd5b5061022661046d3660046130d8565b610d6c565b34801561047e57600080fd5b5061022661048d366004613065565b610e3e565b34801561049e57600080fd5b506102266104ad366004613065565b610f77565b3480156104be57600080fd5b50600c5460ff16610248565b3480156104d657600080fd5b506102266104e53660046130d8565b610fba565b3480156104f657600080fd5b50610226610505366004613065565b611060565b34801561051657600080fd5b5061051f611195565b604051610254919061369e565b34801561053857600080fd5b50610226610547366004613065565b6111f6565b34801561055857600080fd5b5060115461029f906001600160a01b031681565b34801561057857600080fd5b506102266112bb565b34801561058d57600080fd5b5061027261059c366004613221565b6112ff565b3480156105ad57600080fd5b506102266105bc3660046133fa565b6113a1565b3480156105cd57600080fd5b5061029f6105dc366004613221565b611517565b3480156105ed57600080fd5b506102266105fc36600461323a565b61158e565b34801561060d57600080fd5b5061024861061c36600461314c565b611603565b34801561062d57600080fd5b5061064161063c366004613065565b61171d565b604051908152602001610254565b34801561065b57600080fd5b506102726117a4565b34801561067057600080fd5b5061024861067f366004613065565b6001600160a01b031660009081526012602052604090205460ff1690565b3480156106a957600080fd5b506102726117b1565b3480156106be57600080fd5b506102266106cd366004613119565b6117c0565b3480156106de57600080fd5b506102266106ed366004613065565b61187e565b3480156106fe57600080fd5b5061029f61070d366004613221565b6118c1565b6102266107203660046132c0565b6118eb565b34801561073157600080fd5b50610272610740366004613221565b611933565b34801561075157600080fd5b50600f5461075f9060ff1681565b60405160ff9091168152602001610254565b34801561077d57600080fd5b50610786611a1b565b6040516102549493929190613712565b3480156107a257600080fd5b50600c5461024890610100900460ff1681565b610226611b6b565b3480156107c957600080fd5b5061029f6107d836600461332a565b611bad565b3480156107e957600080fd5b506102486107f836600461309f565b6001600160a01b03918216600090815260056020908152604080832093909416825291909152205460ff1690565b34801561083257600080fd5b50610226610841366004613065565b611d33565b60006301ffc9a760e01b6001600160e01b03198316148061088057506001600160e01b0319821660009081526008602052604090205460ff165b92915050565b6060600a805461089590613a8b565b80601f01602080910402602001604051908101604052809291908181526020018280546108c190613a8b565b801561090e5780601f106108e35761010080835404028352916020019161090e565b820191906000526020600020905b8154815290600101906020018083116108f157829003601f168201915b5050505050905090565b6000818152600260205260408120546001600160a01b03166109965760405162461bcd60e51b815260206004820152602c60248201527f4552433732313a20617070726f76656420717565727920666f72206e6f6e657860448201526b34b9ba32b73a103a37b5b2b760a11b60648201526084015b60405180910390fd5b506000908152600460205260409020546001600160a01b031690565b60006109bd82611517565b9050806001600160a01b0316836001600160a01b03161415610a2b5760405162461bcd60e51b815260206004820152602160248201527f4552433732313a20617070726f76616c20746f2063757272656e74206f776e656044820152603960f91b606482015260840161098d565b336001600160a01b0382161480610a475750610a4781336107f8565b610ab95760405162461bcd60e51b815260206004820152603860248201527f4552433732313a20617070726f76652063616c6c6572206973206e6f74206f7760448201527f6e6572206e6f7220617070726f76656420666f7220616c6c0000000000000000606482015260840161098d565b610ac38383611e63565b505050565b600e8054610ad590613a8b565b80601f0160208091040260200160405190810160405280929190818152602001828054610b0190613a8b565b8015610b4e5780601f10610b2357610100808354040283529160200191610b4e565b820191906000526020600020905b815481529060010190602001808311610b3157829003601f168201915b505050505081565b3360009081526012602052604090205460ff161515600114610bc55760405162461bcd60e51b815260206004820152602260248201527f45524337323154656d706c6174653a204e4f5420455243323020436f6e74726160448201526118dd60f21b606482015260840161098d565b610ac3838383611ed1565b3360009081526006602052604090205460ff161515600114610c045760405162461bcd60e51b815260040161098d90613879565b6001600160a01b038116600081815260066020526040808220805462ff0000191662010000178155600780546001810182559352600080516020613b7983398151915290920180546001600160a01b0319168417905551909133917fc2a42571a74ce1442c8c44d375ba9442e7d55d94b37afeace261c83c62128fa490610c979042904390918252602082015260400190565b60405180910390a35050565b3360009081526006602052604090205460ff161515600114610cd75760405162461bcd60e51b815260040161098d90613879565b6001600160a01b038116600081815260066020526040808220805463ff00000019166301000000178155600780546001810182559352600080516020613b7983398151915290920180546001600160a01b0319168417905551909133917feb09276310ed110a7e565d64966d0ff68a47112d2dd5eeb6cbd7451836ce35ee90610c979042904390918252602082015260400190565b80600114610d8c5760405162461bcd60e51b815260040161098d906137dc565b610df6610df16010805480602002602001604051908101604052809291908181526020018280548015610de857602002820191906000526020600020905b81546001600160a01b03168152600190910190602001808311610dca575b50505050505190565b611f2a565b610dfe611fbf565b610e09838383612071565b610e12826120b2565b506001600160a01b03166000908152600660205260409020805463ffffff001916630101010017905550565b3360009081526006602052604090205460ff16151560011480610e8f5750336001600160a01b038216148015610e8f5750336000908152600660205260409020546301000000900460ff1615156001145b15610ef7576001600160a01b03811660008181526006602052604090819020805463ff000000191681559051909133917fc929b18b08ffea86a1f95e29384dbe8968f2fcbd70cfd735df3aba1cc548cbf390610c979042904390918252602082015260400190565b60405162461bcd60e51b815260206004820152604660248201527f455243373231526f6c6573416464726573733a204e6f7420656e6f756768207060448201527f65726d697373696f6e7320746f2072656d6f76652066726f6d2037323553746f6064820152651c99531a5cdd60d21b608482015260a40161098d565b50565b610f816001611517565b6001600160a01b0316336001600160a01b031614610fb15760405162461bcd60e51b815260040161098d906137a5565b610f74816120b2565b80600114610fda5760405162461bcd60e51b815260040161098d906137dc565b61103d610df16010805480602002602001604051908101604052809291908181526020018280548015610de8576020028201919060005260206000209081546001600160a01b03168152600190910190602001808311610dca5750505050505190565b611045611fbf565b610e0983838360405180602001604052806000815250612143565b3360009081526006602052604090205460ff161515600114806110b05750336001600160a01b0382161480156110b057503360009081526006602052604090205462010000900460ff1615156001145b15611117576001600160a01b03811660008181526006602052604090819020805462ff0000191681559051909133917f9b41e1311fa819e825bc77fa2568492112e15ea92d173f3f8ee1c8ec3c1c562b90610c979042904390918252602082015260400190565b60405162461bcd60e51b815260206004820152604760248201527f455243373231526f6c6573416464726573733a204e6f7420656e6f756768207060448201527f65726d697373696f6e7320746f2072656d6f76652066726f6d206d65746164616064820152661d18481b1a5cdd60ca1b608482015260a40161098d565b6060601080548060200260200160405190810160405280929190818152602001828054801561090e57602002820191906000526020600020905b81546001600160a01b031681526001909101906020018083116111cf575050505050905090565b3360009081526006602052604090205460ff16151560011461122a5760405162461bcd60e51b815260040161098d90613879565b6001600160a01b038116600081815260066020526040808220805461ff001916610100178155600780546001810182559352600080516020613b7983398151915290920180546001600160a01b0319168417905551909133917f0572d56343be407a66810f01449212e8545e14ff5049c479d34be944cdfd0d4f90610c979042904390918252602082015260400190565b6112c56001611517565b6001600160a01b0316336001600160a01b0316146112f55760405162461bcd60e51b815260040161098d906137a5565b6112fd611fbf565b565b600081815260096020526040902080546060919061131c90613a8b565b80601f016020809104026020016040519081016040528092919081815260200182805461134890613a8b565b80156113955780601f1061136a57610100808354040283529160200191611395565b820191906000526020600020905b81548152906001019060200180831161137857829003601f168201915b50505050509050919050565b3360009081526006602052604090205462010000900460ff1615156001146114155760405162461bcd60e51b815260206004820152602160248201527f45524337323154656d706c6174653a204e4f54204d455441444154415f524f4c6044820152604560f81b606482015260840161098d565b600f805460ff191660ff8d16179055611430600d8b8b612e96565b5061143d600e8989612e96565b50600c54610100900460ff166114b657336001600160a01b03167fa6105ba66a6e1cdef460b79cd6a2d14f58d1e224f5bb876fafc51535c34ab6848c8c8c8a8a8a8a8a8a424360405161149a9b9a99989796959493929190613961565b60405180910390a2600c805461ff00191661010017905561150a565b600f5460405133917f4248722dac0ab49fef08643fbc510e0343175ae223ca5cc5420e118e46da7198916115019160ff16908e908e908c908c908c908c908c908c9042904390613961565b60405180910390a25b5050505050505050505050565b6000818152600260205260408120546001600160a01b0316806108805760405162461bcd60e51b815260206004820152602960248201527f4552433732313a206f776e657220717565727920666f72206e6f6e657869737460448201526832b73a103a37b5b2b760b91b606482015260840161098d565b336000908152600660205260409020546301000000900460ff161515600114610bc55760405162461bcd60e51b815260206004820152602160248201527f45524337323154656d706c6174653a204e4f542053544f5245205550444154456044820152602960f91b606482015260840161098d565b600c5460009060ff16156116745760405162461bcd60e51b815260206004820152603260248201527f45524337323154656d706c6174653a20746f6b656e20696e7374616e636520616044820152711b1c9958591e481a5b9a5d1a585b1a5e995960721b606482015260840161098d565b60006116ec8989898080601f01602080910402602001604051908101604052809392919081815260200183838082843760009201919091525050604080516020601f8d018190048102820181019092528b815292508b91508a90819084018382808284376000920191909152508a925061217b915050565b905080801561170357506001600160a01b03831615155b15611711576117118361122a565b98975050505050505050565b60006001600160a01b0382166117885760405162461bcd60e51b815260206004820152602a60248201527f4552433732313a2062616c616e636520717565727920666f7220746865207a65604482015269726f206164647265737360b01b606482015260840161098d565b506001600160a01b031660009081526003602052604090205490565b600d8054610ad590613a8b565b6060600b805461089590613a8b565b6001600160a01b0382163314156118195760405162461bcd60e51b815260206004820152601960248201527f4552433732313a20617070726f766520746f2063616c6c657200000000000000604482015260640161098d565b3360008181526005602090815260408083206001600160a01b03871680855290835292819020805460ff191686151590811790915590519081529192917f17307eab39ab6107e8899845ad3d59bd9653f200f220920489ca2b5937696c319101610c97565b6118886001611517565b6001600160a01b0316336001600160a01b0316146118b85760405162461bcd60e51b815260040161098d906137a5565b610f748161228f565b600781815481106118d157600080fd5b6000918252602090912001546001600160a01b0316905081565b3360009081526006602052604090205460ff16151560011461191f5760405162461bcd60e51b815260040161098d90613879565b61192c85858585856122ef565b5050505050565b6000818152600260205260409020546060906001600160a01b03166119b25760405162461bcd60e51b815260206004820152602f60248201527f4552433732314d657461646174613a2055524920717565727920666f72206e6f60448201526e3732bc34b9ba32b73a103a37b5b2b760891b606482015260840161098d565b60006119c960408051602081019091526000815290565b905060008151116119e95760405180602001604052806000815250611a14565b806119f384612518565b604051602001611a04929190613632565b6040516020818303038152906040525b9392505050565b606080600080600d600e600f60009054906101000a900460ff16600c60019054906101000a900460ff16838054611a5190613a8b565b80601f0160208091040260200160405190810160405280929190818152602001828054611a7d90613a8b565b8015611aca5780601f10611a9f57610100808354040283529160200191611aca565b820191906000526020600020905b815481529060010190602001808311611aad57829003601f168201915b50505050509350828054611add90613a8b565b80601f0160208091040260200160405190810160405280929190818152602001828054611b0990613a8b565b8015611b565780601f10611b2b57610100808354040283529160200191611b56565b820191906000526020600020905b815481529060010190602001808311611b3957829003601f168201915b50505050509250935093509350935090919293565b611b756001611517565b6001600160a01b03166108fc479081150290604051600060405180830381858888f19350505050158015610f74573d6000803e3d6000fd5b3360009081526006602052604081205460ff610100909104161515600114611c265760405162461bcd60e51b815260206004820152602660248201527f45524337323154656d706c6174653a204e4f542045524332304445504c4f5945604482015265525f524f4c4560d01b606482015260840161098d565b600f54604051630557fcfb60e41b815260009161010090046001600160a01b03169063557fcfb090611c6c908e908e908e908e908e908e908e908e908e906004016138b0565b602060405180830381600087803b158015611c8657600080fd5b505af1158015611c9a573d6000803e3d6000fd5b505050506040513d601f19601f82011682018060405250810190611cbe9190613082565b6001600160a01b0381166000818152601260205260408120805460ff191660019081179091556010805491820181559091527f1b6847dc741a1b0cd08d278845f9d819d87b734759afb55fe2de5cb82a9ae6720180546001600160a01b03191690911790559150509998505050505050505050565b3360009081526006602052604090205460ff16151560011480611d835750336001600160a01b038216148015611d8357503360009081526006602052604090205460ff6101009091041615156001145b15611de9576001600160a01b03811660008181526006602052604090819020805461ff00191681559051909133917f59bd33f4c27cc16a2d74450e1fa43d7896020be9aecea4bee009db9294de899790610c979042904390918252602082015260400190565b60405162461bcd60e51b815260206004820152604360248201527f455243373231526f6c6573416464726573733a204e6f7420656e6f756768207060448201527f65726d697373696f6e7320746f2072656d6f76652066726f6d2045524332304c6064820152621a5cdd60ea1b608482015260a40161098d565b600081815260046020526040902080546001600160a01b0319166001600160a01b0384169081179091558190611e9882611517565b6001600160a01b03167f8c5be1e5ebec7d5bd14f71427d1e84f3dd0314c0f7b2291e5b200ac8c7c3b92560405160405180910390a45050565b6000838152600960205260409020611eea908383612e96565b50827fece574603820d07bc9b91f2a932baadf4628aabcb8afba49776529c14a6104b28383604051611f1d9291906136eb565b60405180910390a2505050565b60005b81811015611fbb5760108181548110611f4857611f48613b21565b6000918252602082200154604080516382c03da560e01b815290516001600160a01b03909216926382c03da59260048084019382900301818387803b158015611f9057600080fd5b505af1158015611fa4573d6000803e3d6000fd5b505050508080611fb390613ac6565b915050611f2d565b5050565b60005b6007548110156120285760006006600060078481548110611fe557611fe5613b21565b60009182526020808320909101546001600160a01b031683528201929092526040019020805464ffffffffff19169055508061202081613ac6565b915050611fc2565b5061203560076000612f1a565b6040805142815243602082015233917f712bc71db81927a76b8bf1ea346247bb0ad58f18e4e5c1bd4aa0ec6573e02a2b910160405180910390a2565b61207b3382612616565b6120975760405162461bcd60e51b815260040161098d90613828565b610ac383838360405180602001604052806000815250612143565b6001600160a01b038116600081815260066020526040808220805460ff191660019081178255600780549182018155909352600080516020613b7983398151915290920180546001600160a01b0319168417905551909133917faf8fc8b6726138c96881c895390a08e9d91a94c288f06281e7f9821c49c7155b90610c979042904390918252602082015260400190565b61214d3383612616565b6121695760405162461bcd60e51b815260040161098d90613828565b61217584848484612709565b50505050565b60006001600160a01b0385166121ea5760405162461bcd60e51b815260206004820152602e60248201527f45524337323154656d706c6174653a3a20496e76616c6964206d696e7465722c60448201526d20207a65726f206164647265737360901b606482015260840161098d565b83516121fd90600a906020870190612f38565b50825161221190600b906020860190612f38565b50600f8054610100600160a81b0319166101006001600160a01b03851602179055600c805460ff1916600190811790915561224d90869061273c565b612256856120b2565b506001600160a01b0384166000908152600660205260409020805463ffffff0019166301010100179055600c5460ff165b949350505050565b6001600160a01b03811660008181526006602052604090819020805460ff191681559051909133917fb572db0e6da4924b771ed1712b980d48b5992b9a1c27aede55fbb3318c48996a90610c979042904390918252602082015260400190565b82846001600160a01b0316867f1f920dbda597d7bf95035464170fa58d0a4b57f13a1c315ace6793b9f63688b8858560405161232c9291906136eb565b60405180910390a460006109c45a6123449190613a48565b9050856123945761238e858585858080601f016020809104026020016040519081016040528093929190818152602001838380828437600092019190915250879250612756915050565b50612510565b60038614156123dd5761238e8484848080601f01602080910402602001604051908101604052809392919081815260200183838082843760009201919091525061276e92505050565b60028614156124d157600061243484848080601f01602080910402602001604051908101604052809392919081815260200183838082843760009201919091525061242f925060209150879050613a48565b61280a565b9050600061248385858080601f0160208091040260200160405190810160405280939291908181526020018383808284376000920182905250925061247e91506020905088613a48565b612868565b90506000612492878484612975565b6040519091506001600160a01b038216907fcf78cf0d6f3d8371e1075c69c492ab4ec5d8cf23a1a239b6a51a1d00be7ca31290600090a2505050612510565b60405162461bcd60e51b815260206004820152601460248201527357726f6e67206f7065726174696f6e207479706560601b604482015260640161098d565b505050505050565b60608161253c5750506040805180820190915260018152600360fc1b602082015290565b8160005b8115612566578061255081613ac6565b915061255f9050600a83613a34565b9150612540565b60008167ffffffffffffffff81111561258157612581613b37565b6040519080825280601f01601f1916602001820160405280156125ab576020820181803683370190505b5090505b8415612287576125c0600183613a48565b91506125cd600a86613ae1565b6125d8906030613a1c565b60f81b8183815181106125ed576125ed613b21565b60200101906001600160f81b031916908160001a90535061260f600a86613a34565b94506125af565b6000818152600260205260408120546001600160a01b031661268f5760405162461bcd60e51b815260206004820152602c60248201527f4552433732313a206f70657261746f7220717565727920666f72206e6f6e657860448201526b34b9ba32b73a103a37b5b2b760a11b606482015260840161098d565b600061269a83611517565b9050806001600160a01b0316846001600160a01b031614806126d55750836001600160a01b03166126ca84610918565b6001600160a01b0316145b8061228757506001600160a01b0380821660009081526005602090815260408083209388168352929052205460ff16612287565b612714848484612a77565b61272084848484612c17565b6121755760405162461bcd60e51b815260040161098d90613753565b611fbb828260405180602001604052806000815250612d21565b6000806000845160208601878987f195945050505050565b600081516020830184f090506001600160a01b0381166127d05760405162461bcd60e51b815260206004820152601960248201527f436f756c64206e6f74206465706c6f7920636f6e747261637400000000000000604482015260640161098d565b6040516001600160a01b038216907fcf78cf0d6f3d8371e1075c69c492ab4ec5d8cf23a1a239b6a51a1d00be7ca31290600090a292915050565b6000612817826020613a1c565b8351101561285f5760405162461bcd60e51b8152602060048201526015602482015274746f427974657333325f6f75744f66426f756e647360581b604482015260640161098d565b50016020015190565b60608161287681601f613a1c565b10156128b55760405162461bcd60e51b815260206004820152600e60248201526d736c6963655f6f766572666c6f7760901b604482015260640161098d565b6128bf8284613a1c565b845110156129035760405162461bcd60e51b8152602060048201526011602482015270736c6963655f6f75744f66426f756e647360781b604482015260640161098d565b606082158015612922576040519150600082526020820160405261296c565b6040519150601f8416801560200281840101858101878315602002848b0101015b8183101561295b578051835260209283019201612943565b5050858452601f01601f1916604052505b50949350505050565b600080844710156129c85760405162461bcd60e51b815260206004820152601d60248201527f437265617465323a20696e73756666696369656e742062616c616e6365000000604482015260640161098d565b8251612a165760405162461bcd60e51b815260206004820181905260248201527f437265617465323a2062797465636f6465206c656e677468206973207a65726f604482015260640161098d565b8383516020850187f590506001600160a01b0381166122875760405162461bcd60e51b815260206004820152601960248201527f437265617465323a204661696c6564206f6e206465706c6f7900000000000000604482015260640161098d565b826001600160a01b0316612a8a82611517565b6001600160a01b031614612af25760405162461bcd60e51b815260206004820152602960248201527f4552433732313a207472616e73666572206f6620746f6b656e2074686174206960448201526839903737ba1037bbb760b91b606482015260840161098d565b6001600160a01b038216612b545760405162461bcd60e51b8152602060048201526024808201527f4552433732313a207472616e7366657220746f20746865207a65726f206164646044820152637265737360e01b606482015260840161098d565b612b5f600082611e63565b6001600160a01b0383166000908152600360205260408120805460019290612b88908490613a48565b90915550506001600160a01b0382166000908152600360205260408120805460019290612bb6908490613a1c565b909155505060008181526002602052604080822080546001600160a01b0319166001600160a01b0386811691821790925591518493918716917fddf252ad1be2c89b69c2b068fc378daa952ba7f163c4a11628f55a4df523b3ef91a4505050565b60006001600160a01b0384163b15612d1957604051630a85bd0160e11b81526001600160a01b0385169063150b7a0290612c5b903390899088908890600401613661565b602060405180830381600087803b158015612c7557600080fd5b505af1925050508015612ca5575060408051601f3d908101601f19168201909252612ca2918101906132a3565b60015b612cff573d808015612cd3576040519150601f19603f3d011682016040523d82523d6000602084013e612cd8565b606091505b508051612cf75760405162461bcd60e51b815260040161098d90613753565b805181602001fd5b6001600160e01b031916630a85bd0160e11b149050612287565b506001612287565b612d2b8383612d54565b612d386000848484612c17565b610ac35760405162461bcd60e51b815260040161098d90613753565b6001600160a01b038216612daa5760405162461bcd60e51b815260206004820181905260248201527f4552433732313a206d696e7420746f20746865207a65726f2061646472657373604482015260640161098d565b6000818152600260205260409020546001600160a01b031615612e0f5760405162461bcd60e51b815260206004820152601c60248201527f4552433732313a20746f6b656e20616c7265616479206d696e74656400000000604482015260640161098d565b6001600160a01b0382166000908152600360205260408120805460019290612e38908490613a1c565b909155505060008181526002602052604080822080546001600160a01b0319166001600160a01b03861690811790915590518392907fddf252ad1be2c89b69c2b068fc378daa952ba7f163c4a11628f55a4df523b3ef908290a45050565b828054612ea290613a8b565b90600052602060002090601f016020900481019282612ec45760008555612f0a565b82601f10612edd5782800160ff19823516178555612f0a565b82800160010185558215612f0a579182015b82811115612f0a578235825591602001919060010190612eef565b50612f16929150612fac565b5090565b5080546000825590600052602060002090810190610f749190612fac565b828054612f4490613a8b565b90600052602060002090601f016020900481019282612f665760008555612f0a565b82601f10612f7f57805160ff1916838001178555612f0a565b82800160010185558215612f0a579182015b82811115612f0a578251825591602001919060010190612f91565b5b80821115612f165760008155600101612fad565b60008083601f840112612fd357600080fd5b50813567ffffffffffffffff811115612feb57600080fd5b6020830191508360208260051b850101111561300657600080fd5b9250929050565b60008083601f84011261301f57600080fd5b50813567ffffffffffffffff81111561303757600080fd5b60208301915083602082850101111561300657600080fd5b803560ff8116811461306057600080fd5b919050565b60006020828403121561307757600080fd5b8135611a1481613b4d565b60006020828403121561309457600080fd5b8151611a1481613b4d565b600080604083850312156130b257600080fd5b82356130bd81613b4d565b915060208301356130cd81613b4d565b809150509250929050565b6000806000606084860312156130ed57600080fd5b83356130f881613b4d565b9250602084013561310881613b4d565b929592945050506040919091013590565b6000806040838503121561312c57600080fd5b823561313781613b4d565b9150602083013580151581146130cd57600080fd5b600080600080600080600060a0888a03121561316757600080fd5b873561317281613b4d565b9650602088013567ffffffffffffffff8082111561318f57600080fd5b61319b8b838c0161300d565b909850965060408a01359150808211156131b457600080fd5b506131c18a828b0161300d565b90955093505060608801356131d581613b4d565b915060808801356131e581613b4d565b8091505092959891949750929550565b6000806040838503121561320857600080fd5b823561321381613b4d565b946020939093013593505050565b60006020828403121561323357600080fd5b5035919050565b60008060006040848603121561324f57600080fd5b83359250602084013567ffffffffffffffff81111561326d57600080fd5b6132798682870161300d565b9497909650939450505050565b60006020828403121561329857600080fd5b8135611a1481613b62565b6000602082840312156132b557600080fd5b8151611a1481613b62565b6000806000806000608086880312156132d857600080fd5b8535945060208601356132ea81613b4d565b935060408601359250606086013567ffffffffffffffff81111561330d57600080fd5b6133198882890161300d565b969995985093965092949392505050565b600080600080600080600080600060a08a8c03121561334857600080fd5b8935985060208a013567ffffffffffffffff8082111561336757600080fd5b6133738d838e01612fc1565b909a50985060408c013591508082111561338c57600080fd5b6133988d838e01612fc1565b909850965060608c01359150808211156133b157600080fd5b6133bd8d838e01612fc1565b909650945060808c01359150808211156133d657600080fd5b506133e38c828d01612fc1565b915080935050809150509295985092959850929598565b600080600080600080600080600080600060c08c8e03121561341b57600080fd5b6134248c61304f565b9a5067ffffffffffffffff8060208e0135111561344057600080fd5b6134508e60208f01358f0161300d565b909b50995060408d013581101561346657600080fd5b6134768e60408f01358f0161300d565b909950975060608d013581101561348c57600080fd5b61349c8e60608f01358f0161300d565b909750955060808d01358110156134b257600080fd5b6134c28e60808f01358f0161300d565b909550935060a08d01358110156134d857600080fd5b506134e98d60a08e01358e0161300d565b81935080925050509295989b509295989b9093969950565b8183526000602080850194508260005b8581101561353f57813561352481613b4d565b6001600160a01b031687529582019590820190600101613511565b509495945050505050565b81835260006020808501808196508560051b810191508460005b8781101561359a57828403895261357b82886139d6565b6135868682846135dd565b9a87019a9550505090840190600101613564565b5091979650505050505050565b81835260006001600160fb1b038311156135c057600080fd5b8260051b8083602087013760009401602001938452509192915050565b81835281816020850137506000828201602090810191909152601f909101601f19169091010190565b6000815180845261361e816020860160208601613a5f565b601f01601f19169290920160200192915050565b60008351613644818460208801613a5f565b835190830190613658818360208801613a5f565b01949350505050565b6001600160a01b038581168252841660208201526040810183905260806060820181905260009061369490830184613606565b9695505050505050565b6020808252825182820181905260009190848201906040850190845b818110156136df5783516001600160a01b0316835292840192918401916001016136ba565b50909695505050505050565b6020815260006122876020830184866135dd565b602081526000611a146020830184613606565b6080815260006137256080830187613606565b82810360208401526137378187613606565b60ff959095166040840152505090151560609091015292915050565b60208082526032908201527f4552433732313a207472616e7366657220746f206e6f6e20455243373231526560408201527131b2b4bb32b91034b6b83632b6b2b73a32b960711b606082015260800190565b6020808252601c908201527f45524337323154656d706c6174653a206e6f74204e46544f776e657200000000604082015260600190565b6020808252602c908201527f45524337323154656d706c6174653a2043616e6e6f74207472616e736665722060408201526b1d1a1a5cc81d1bdad95b925960a21b606082015260800190565b60208082526031908201527f4552433732313a207472616e736665722063616c6c6572206973206e6f74206f6040820152701ddb995c881b9bdc88185c1c1c9bdd9959607a1b606082015260800190565b6020808252601f908201527f455243373231526f6c6573416464726573733a204e4f54204d414e4147455200604082015260600190565b89815260a0602082018190528101889052600060c060058a901b830181019083018b835b8c8110156139115785840360bf190183526138ef828f6139d6565b6138fa8682846135dd565b9550505060209283019291909101906001016138d4565b505050828103604084015261392781898b613501565b9050828103606084015261393c8187896135a7565b9050828103608084015261395181858761354a565b9c9b505050505050505050505050565b60ff8c16815260e06020820152600061397e60e083018c8e6135dd565b8281036040840152613991818b8d6135dd565b905082810360608401526139a681898b6135dd565b905082810360808401526139bb8187896135dd565b60a0840195909552505060c001529998505050505050505050565b6000808335601e198436030181126139ed57600080fd5b830160208101925035905067ffffffffffffffff811115613a0d57600080fd5b80360383131561300657600080fd5b60008219821115613a2f57613a2f613af5565b500190565b600082613a4357613a43613b0b565b500490565b600082821015613a5a57613a5a613af5565b500390565b60005b83811015613a7a578181015183820152602001613a62565b838111156121755750506000910152565b600181811c90821680613a9f57607f821691505b60208210811415613ac057634e487b7160e01b600052602260045260246000fd5b50919050565b6000600019821415613ada57613ada613af5565b5060010190565b600082613af057613af0613b0b565b500690565b634e487b7160e01b600052601160045260246000fd5b634e487b7160e01b600052601260045260246000fd5b634e487b7160e01b600052603260045260246000fd5b634e487b7160e01b600052604160045260246000fd5b6001600160a01b0381168114610f7457600080fd5b6001600160e01b031981168114610f7457600080fdfea66cc928b5edb82af9bd49922954155ab7b0942694bea4ce44661d9a8736c688a2646970667358221220ba04a8105ccb3958d89f95a14dd49b5fc0cc8612b427d7bc69e55a3f204a616b64736f6c63430008070033",
  "linkReferences": {},
  "deployedLinkReferences": {}
}