{
  "contractName": "DDO",
  "abi": [
    {
      "inputs": [],
      "payable": false,
      "stateMutability": "nonpayable",
      "type": "constructor"
    },
    {
      "anonymous": false,
      "inputs": [
        {
          "indexed": true,
          "name": "did",
          "type": "string"
        },
        {
          "indexed": false,
          "name": "flags",
          "type": "bytes"
        },
        {
          "indexed": false,
          "name": "data",
          "type": "bytes"
        }
      ],
      "name": "newDDOEvent",
      "type": "event"
    },
    {
      "anonymous": false,
      "inputs": [
        {
          "indexed": true,
          "name": "did",
          "type": "string"
        },
        {
          "indexed": false,
          "name": "flags",
          "type": "bytes"
        },
        {
          "indexed": false,
          "name": "data",
          "type": "bytes"
        }
      ],
      "name": "updateDDOEvent",
      "type": "event"
    },
    {
      "constant": false,
      "inputs": [
        {
          "name": "did",
          "type": "string"
        },
        {
          "name": "flags",
          "type": "bytes"
        },
        {
          "name": "data",
          "type": "bytes"
        }
      ],
      "name": "newDDO",
      "outputs": [],
      "payable": false,
      "stateMutability": "nonpayable",
      "type": "function"
    },
    {
      "constant": false,
      "inputs": [
        {
          "name": "did",
          "type": "string"
        },
        {
          "name": "flags",
          "type": "bytes"
        },
        {
          "name": "data",
          "type": "bytes"
        }
      ],
      "name": "updateDDO",
      "outputs": [],
      "payable": false,
      "stateMutability": "nonpayable",
      "type": "function"
    }
  ],
  "bytecode": "0x608060405234801561001057600080fd5b50610608806100206000396000f3fe608060405234801561001057600080fd5b5060043610610052577c01000000000000000000000000000000000000000000000000000000006000350463514cd1e58114610057578063802a74581461020d575b600080fd5b61020b6004803603606081101561006d57600080fd5b81019060208101813564010000000081111561008857600080fd5b82018360208201111561009a57600080fd5b803590602001918460018302840111640100000000831117156100bc57600080fd5b91908080601f016020809104026020016040519081016040528093929190818152602001838380828437600092019190915250929594936020810193503591505064010000000081111561010f57600080fd5b82018360208201111561012157600080fd5b8035906020019184600183028401116401000000008311171561014357600080fd5b91908080601f016020809104026020016040519081016040528093929190818152602001838380828437600092019190915250929594936020810193503591505064010000000081111561019657600080fd5b8201836020820111156101a857600080fd5b803590602001918460018302840111640100000000831117156101ca57600080fd5b91908080601f0160208091040260200160405190810160405280939291908181526020018383808284376000920191909152509295506103c1945050505050565b005b61020b6004803603606081101561022357600080fd5b81019060208101813564010000000081111561023e57600080fd5b82018360208201111561025057600080fd5b8035906020019184600183028401116401000000008311171561027257600080fd5b91908080601f01602080910402602001604051908101604052809392919081815260200183838082843760009201919091525092959493602081019350359150506401000000008111156102c557600080fd5b8201836020820111156102d757600080fd5b803590602001918460018302840111640100000000831117156102f957600080fd5b91908080601f016020809104026020016040519081016040528093929190818152602001838380828437600092019190915250929594936020810193503591505064010000000081111561034c57600080fd5b82018360208201111561035e57600080fd5b8035906020019184600183028401116401000000008311171561038057600080fd5b91908080601f016020809104026020016040519081016040528093929190818152602001838380828437600092019190915250929550610523945050505050565b826040518082805190602001908083835b602083106103f15780518252601f1990920191602091820191016103d2565b6001836020036101000a03801982511681845116808217855250505050505090500191505060405180910390207f17d26833b738307846d73944d9c069fd67ac860194207c724a936d51f9237dca8383604051808060200180602001838103835285818151815260200191508051906020019080838360005b8381101561048257818101518382015260200161046a565b50505050905090810190601f1680156104af5780820380516001836020036101000a031916815260200191505b50838103825284518152845160209182019186019080838360005b838110156104e25781810151838201526020016104ca565b50505050905090810190601f16801561050f5780820380516001836020036101000a031916815260200191505b5094505050505060405180910390a2505050565b826040518082805190602001908083835b602083106105535780518252601f199092019160209182019101610534565b51815160209384036101000a60001901801990921691161790526040805192909401829003822084835288519483019490945287519395507f8ca05723a24be3df3a6c4e2f396d0f84672248a193aaa75de0ef1d5ab2c6f72e9450879387935082918281019160608401918701908083836000831561048257818101518382015260200161046a56fea165627a7a7230582003759ac6c766b9ff23d4a15deb6faab7a4ba7dc3241487c571d2f4b30e9d46550029",
  "source": "pragma solidity ^0.5.7;\n// Copyright BigchainDB GmbH and Ocean Protocol contributors\n// SPDX-License-Identifier: (Apache-2.0 AND CC-BY-4.0)\n// Code is Apache-2.0 and docs are CC-BY-4.0\n\n\ncontract DDO {\n    event newDDOEvent(\n        string indexed did,\n        bytes flags,\n        bytes data\n    );\n    event updateDDOEvent(\n        string indexed did,\n        bytes flags,\n        bytes data\n    );\n\n    constructor()\n    public \n    {\n\n    }\n\n    function newDDO(\n        string memory did,\n        bytes memory flags,\n        bytes memory data\n    ) \n        public\n        \n    {\n        emit newDDOEvent(did,flags,data);\n        \n    }\n\n    function updateDDO(\n        string memory did,\n        bytes memory flags,\n        bytes memory data\n    ) \n        public\n        \n    {\n        emit updateDDOEvent(did,flags,data);\n        \n    }\n}\n",
  "sourcePath": "/ocean/ocean-contracts/contracts/DDO.sol",
  "compiler": {
    "name": "solc",
    "version": "0.5.7+commit.6da8b019.Emscripten.clang"
  },
  "schemaVersion": "3.2.0",
  "updatedAt": "2020-08-06T07:59:27.174Z",
  "networkType": "ethereum",
  "devdoc": {
    "methods": {}
  },
  "userdoc": {
    "methods": {}
  }
}