{
  "_format": "hh-sol-artifact-1",
  "contractName": "ERC721Factory",
  "sourceName": "contracts/ERC721Factory.sol",
  "abi": [
    {
      "inputs": [
        {
          "internalType": "address",
          "name": "_template721",
          "type": "address"
        },
        {
          "internalType": "address",
          "name": "_template",
          "type": "address"
        },
        {
          "internalType": "address",
          "name": "_collector",
          "type": "address"
        },
        {
          "internalType": "address",
          "name": "_router",
          "type": "address"
        }
      ],
      "stateMutability": "nonpayable",
      "type": "constructor"
    },
    {
      "anonymous": false,
      "inputs": [
        {
          "indexed": false,
          "internalType": "address",
          "name": "instance",
          "type": "address"
        }
      ],
      "name": "InstanceDeployed",
      "type": "event"
    },
    {
      "anonymous": false,
      "inputs": [
        {
          "indexed": true,
          "internalType": "address",
          "name": "newTokenAddress",
          "type": "address"
        },
        {
          "indexed": true,
          "internalType": "address",
          "name": "templateAddress",
          "type": "address"
        },
        {
          "indexed": true,
          "internalType": "string",
          "name": "tokenName",
          "type": "string"
        },
        {
          "indexed": false,
          "internalType": "address",
          "name": "admin",
          "type": "address"
        }
      ],
      "name": "NFTCreated",
      "type": "event"
    },
    {
      "anonymous": false,
      "inputs": [
        {
          "indexed": false,
          "internalType": "bytes32",
          "name": "exchangeId",
          "type": "bytes32"
        },
        {
          "indexed": false,
          "internalType": "address",
          "name": "owner",
          "type": "address"
        }
      ],
      "name": "NewFixedRate",
      "type": "event"
    },
    {
      "anonymous": false,
      "inputs": [
        {
          "indexed": false,
          "internalType": "address",
          "name": "poolAddress",
          "type": "address"
        },
        {
          "indexed": false,
          "internalType": "address",
          "name": "ssContract",
          "type": "address"
        },
        {
          "indexed": false,
          "internalType": "address",
          "name": "basetokenAddress",
          "type": "address"
        }
      ],
      "name": "NewPool",
      "type": "event"
    },
    {
      "anonymous": false,
      "inputs": [
        {
          "indexed": true,
          "internalType": "address",
          "name": "previousOwner",
          "type": "address"
        },
        {
          "indexed": true,
          "internalType": "address",
          "name": "newOwner",
          "type": "address"
        }
      ],
      "name": "OwnershipTransferred",
      "type": "event"
    },
    {
      "anonymous": false,
      "inputs": [
        {
          "indexed": true,
          "internalType": "address",
          "name": "newTokenAddress",
          "type": "address"
        },
        {
          "indexed": true,
          "internalType": "address",
          "name": "templateAddress",
          "type": "address"
        },
        {
          "indexed": true,
          "internalType": "string",
          "name": "tokenName",
          "type": "string"
        }
      ],
      "name": "TokenCreated",
      "type": "event"
    },
    {
      "inputs": [
        {
          "internalType": "address",
          "name": "_templateAddress",
          "type": "address"
        }
      ],
      "name": "add721TokenTemplate",
      "outputs": [
        {
          "internalType": "uint256",
          "name": "",
          "type": "uint256"
        }
      ],
      "stateMutability": "nonpayable",
      "type": "function"
    },
    {
      "inputs": [
        {
          "internalType": "address",
          "name": "_templateAddress",
          "type": "address"
        }
      ],
      "name": "addTokenTemplate",
      "outputs": [
        {
          "internalType": "uint256",
          "name": "",
          "type": "uint256"
        }
      ],
      "stateMutability": "nonpayable",
      "type": "function"
    },
    {
      "inputs": [
        {
          "components": [
            {
              "internalType": "string",
              "name": "name",
              "type": "string"
            },
            {
              "internalType": "string",
              "name": "symbol",
              "type": "string"
            },
            {
              "internalType": "uint256",
              "name": "templateIndex",
              "type": "uint256"
            }
          ],
          "internalType": "struct ERC721Factory.NftCreateData",
          "name": "_NftCreateData",
          "type": "tuple"
        },
        {
          "components": [
            {
              "internalType": "uint256",
              "name": "templateIndex",
              "type": "uint256"
            },
            {
              "internalType": "string[]",
              "name": "strings",
              "type": "string[]"
            },
            {
              "internalType": "address[]",
              "name": "addresses",
              "type": "address[]"
            },
            {
              "internalType": "uint256[]",
              "name": "uints",
              "type": "uint256[]"
            },
            {
              "internalType": "bytes[]",
              "name": "bytess",
              "type": "bytes[]"
            }
          ],
          "internalType": "struct ERC721Factory.ErcCreateData",
          "name": "_ErcCreateData",
          "type": "tuple"
        },
        {
          "components": [
            {
              "internalType": "address",
              "name": "fixedPriceAddress",
              "type": "address"
            },
            {
              "internalType": "address[]",
              "name": "addresses",
              "type": "address[]"
            },
            {
              "internalType": "uint256[]",
              "name": "uints",
              "type": "uint256[]"
            }
          ],
          "internalType": "struct ERC721Factory.FixedData",
          "name": "_FixedData",
          "type": "tuple"
        }
      ],
      "name": "createNftErcWithFixedRate",
      "outputs": [
        {
          "internalType": "address",
          "name": "erc721Address",
          "type": "address"
        },
        {
          "internalType": "address",
          "name": "erc20Address",
          "type": "address"
        },
        {
          "internalType": "bytes32",
          "name": "exchangeId",
          "type": "bytes32"
        }
      ],
      "stateMutability": "nonpayable",
      "type": "function"
    },
    {
      "inputs": [
        {
          "components": [
            {
              "internalType": "string",
              "name": "name",
              "type": "string"
            },
            {
              "internalType": "string",
              "name": "symbol",
              "type": "string"
            },
            {
              "internalType": "uint256",
              "name": "templateIndex",
              "type": "uint256"
            }
          ],
          "internalType": "struct ERC721Factory.NftCreateData",
          "name": "_NftCreateData",
          "type": "tuple"
        },
        {
          "components": [
            {
              "internalType": "uint256",
              "name": "templateIndex",
              "type": "uint256"
            },
            {
              "internalType": "string[]",
              "name": "strings",
              "type": "string[]"
            },
            {
              "internalType": "address[]",
              "name": "addresses",
              "type": "address[]"
            },
            {
              "internalType": "uint256[]",
              "name": "uints",
              "type": "uint256[]"
            },
            {
              "internalType": "bytes[]",
              "name": "bytess",
              "type": "bytes[]"
            }
          ],
          "internalType": "struct ERC721Factory.ErcCreateData",
          "name": "_ErcCreateData",
          "type": "tuple"
        },
        {
          "components": [
            {
              "internalType": "address[]",
              "name": "addresses",
              "type": "address[]"
            },
            {
              "internalType": "uint256[]",
              "name": "ssParams",
              "type": "uint256[]"
            },
            {
              "internalType": "uint256[]",
              "name": "swapFees",
              "type": "uint256[]"
            }
          ],
          "internalType": "struct ERC721Factory.PoolData",
          "name": "_PoolData",
          "type": "tuple"
        }
      ],
      "name": "createNftErcWithPool",
      "outputs": [
        {
          "internalType": "address",
          "name": "erc721Address",
          "type": "address"
        },
        {
          "internalType": "address",
          "name": "erc20Address",
          "type": "address"
        },
        {
          "internalType": "address",
          "name": "poolAddress",
          "type": "address"
        }
      ],
      "stateMutability": "nonpayable",
      "type": "function"
    },
    {
      "inputs": [
        {
          "components": [
            {
              "internalType": "string",
              "name": "name",
              "type": "string"
            },
            {
              "internalType": "string",
              "name": "symbol",
              "type": "string"
            },
            {
              "internalType": "uint256",
              "name": "templateIndex",
              "type": "uint256"
            }
          ],
          "internalType": "struct ERC721Factory.NftCreateData",
          "name": "_NftCreateData",
          "type": "tuple"
        },
        {
          "components": [
            {
              "internalType": "uint256",
              "name": "templateIndex",
              "type": "uint256"
            },
            {
              "internalType": "string[]",
              "name": "strings",
              "type": "string[]"
            },
            {
              "internalType": "address[]",
              "name": "addresses",
              "type": "address[]"
            },
            {
              "internalType": "uint256[]",
              "name": "uints",
              "type": "uint256[]"
            },
            {
              "internalType": "bytes[]",
              "name": "bytess",
              "type": "bytes[]"
            }
          ],
          "internalType": "struct ERC721Factory.ErcCreateData",
          "name": "_ErcCreateData",
          "type": "tuple"
        }
      ],
      "name": "createNftWithErc",
      "outputs": [
        {
          "internalType": "address",
          "name": "erc721Address",
          "type": "address"
        },
        {
          "internalType": "address",
          "name": "erc20Address",
          "type": "address"
        }
      ],
      "stateMutability": "nonpayable",
      "type": "function"
    },
    {
      "inputs": [
        {
          "internalType": "uint256",
          "name": "_templateIndex",
          "type": "uint256"
        },
        {
          "internalType": "string[]",
          "name": "strings",
          "type": "string[]"
        },
        {
          "internalType": "address[]",
          "name": "addresses",
          "type": "address[]"
        },
        {
          "internalType": "uint256[]",
          "name": "uints",
          "type": "uint256[]"
        },
        {
          "internalType": "bytes[]",
          "name": "bytess",
          "type": "bytes[]"
        }
      ],
      "name": "createToken",
      "outputs": [
        {
          "internalType": "address",
          "name": "token",
          "type": "address"
        }
      ],
      "stateMutability": "nonpayable",
      "type": "function"
    },
    {
      "inputs": [
        {
          "internalType": "string",
          "name": "name",
          "type": "string"
        },
        {
          "internalType": "string",
          "name": "symbol",
          "type": "string"
        },
        {
          "internalType": "uint256",
          "name": "_templateIndex",
          "type": "uint256"
        },
        {
          "internalType": "address",
          "name": "additionalERC20Deployer",
          "type": "address"
        }
      ],
      "name": "deployERC721Contract",
      "outputs": [
        {
          "internalType": "address",
          "name": "token",
          "type": "address"
        }
      ],
      "stateMutability": "nonpayable",
      "type": "function"
    },
    {
      "inputs": [
        {
          "internalType": "uint256",
          "name": "_index",
          "type": "uint256"
        }
      ],
      "name": "disable721TokenTemplate",
      "outputs": [],
      "stateMutability": "nonpayable",
      "type": "function"
    },
    {
      "inputs": [
        {
          "internalType": "uint256",
          "name": "_index",
          "type": "uint256"
        }
      ],
      "name": "disableTokenTemplate",
      "outputs": [],
      "stateMutability": "nonpayable",
      "type": "function"
    },
    {
      "inputs": [
        {
          "internalType": "address",
          "name": "",
          "type": "address"
        }
      ],
      "name": "erc20List",
      "outputs": [
        {
          "internalType": "bool",
          "name": "",
          "type": "bool"
        }
      ],
      "stateMutability": "view",
      "type": "function"
    },
    {
      "inputs": [
        {
          "internalType": "address",
          "name": "",
          "type": "address"
        }
      ],
      "name": "erc721List",
      "outputs": [
        {
          "internalType": "address",
          "name": "",
          "type": "address"
        }
      ],
      "stateMutability": "view",
      "type": "function"
    },
    {
      "inputs": [],
      "name": "getCurrentNFTCount",
      "outputs": [
        {
          "internalType": "uint256",
          "name": "",
          "type": "uint256"
        }
      ],
      "stateMutability": "view",
      "type": "function"
    },
    {
      "inputs": [],
      "name": "getCurrentNFTTemplateCount",
      "outputs": [
        {
          "internalType": "uint256",
          "name": "",
          "type": "uint256"
        }
      ],
      "stateMutability": "view",
      "type": "function"
    },
    {
      "inputs": [],
      "name": "getCurrentTemplateCount",
      "outputs": [
        {
          "internalType": "uint256",
          "name": "",
          "type": "uint256"
        }
      ],
      "stateMutability": "view",
      "type": "function"
    },
    {
      "inputs": [],
      "name": "getCurrentTokenCount",
      "outputs": [
        {
          "internalType": "uint256",
          "name": "",
          "type": "uint256"
        }
      ],
      "stateMutability": "view",
      "type": "function"
    },
    {
      "inputs": [
        {
          "internalType": "uint256",
          "name": "_index",
          "type": "uint256"
        }
      ],
      "name": "getNFTTemplate",
      "outputs": [
        {
          "components": [
            {
              "internalType": "address",
              "name": "templateAddress",
              "type": "address"
            },
            {
              "internalType": "bool",
              "name": "isActive",
              "type": "bool"
            }
          ],
          "internalType": "struct ERC721Factory.Template",
          "name": "",
          "type": "tuple"
        }
      ],
      "stateMutability": "view",
      "type": "function"
    },
    {
      "inputs": [
        {
          "internalType": "uint256",
          "name": "_index",
          "type": "uint256"
        }
      ],
      "name": "getTokenTemplate",
      "outputs": [
        {
          "components": [
            {
              "internalType": "address",
              "name": "templateAddress",
              "type": "address"
            },
            {
              "internalType": "bool",
              "name": "isActive",
              "type": "bool"
            }
          ],
          "internalType": "struct ERC721Factory.Template",
          "name": "",
          "type": "tuple"
        }
      ],
      "stateMutability": "view",
      "type": "function"
    },
    {
      "inputs": [
        {
          "internalType": "uint256",
          "name": "",
          "type": "uint256"
        }
      ],
      "name": "nftTemplateList",
      "outputs": [
        {
          "internalType": "address",
          "name": "templateAddress",
          "type": "address"
        },
        {
          "internalType": "bool",
          "name": "isActive",
          "type": "bool"
        }
      ],
      "stateMutability": "view",
      "type": "function"
    },
    {
      "inputs": [],
      "name": "owner",
      "outputs": [
        {
          "internalType": "address",
          "name": "",
          "type": "address"
        }
      ],
      "stateMutability": "view",
      "type": "function"
    },
    {
      "inputs": [
        {
          "internalType": "uint256",
          "name": "_index",
          "type": "uint256"
        }
      ],
      "name": "reactivate721TokenTemplate",
      "outputs": [],
      "stateMutability": "nonpayable",
      "type": "function"
    },
    {
      "inputs": [
        {
          "internalType": "uint256",
          "name": "_index",
          "type": "uint256"
        }
      ],
      "name": "reactivateTokenTemplate",
      "outputs": [],
      "stateMutability": "nonpayable",
      "type": "function"
    },
    {
      "inputs": [],
      "name": "renounceOwnership",
      "outputs": [],
      "stateMutability": "nonpayable",
      "type": "function"
    },
    {
      "inputs": [],
      "name": "router",
      "outputs": [
        {
          "internalType": "address",
          "name": "",
          "type": "address"
        }
      ],
      "stateMutability": "view",
      "type": "function"
    },
    {
      "inputs": [
        {
          "components": [
            {
              "internalType": "address",
              "name": "tokenAddress",
              "type": "address"
            },
            {
              "internalType": "address",
              "name": "consumer",
              "type": "address"
            },
            {
              "internalType": "uint256",
              "name": "amount",
              "type": "uint256"
            },
            {
              "internalType": "uint256",
              "name": "serviceId",
              "type": "uint256"
            },
            {
              "internalType": "address",
              "name": "consumeFeeAddress",
              "type": "address"
            },
            {
              "internalType": "address",
              "name": "consumeFeeToken",
              "type": "address"
            },
            {
              "internalType": "uint256",
              "name": "consumeFeeAmount",
              "type": "uint256"
            }
          ],
          "internalType": "struct ERC721Factory.tokenOrder[]",
          "name": "orders",
          "type": "tuple[]"
        }
      ],
      "name": "startMultipleTokenOrder",
      "outputs": [],
      "stateMutability": "nonpayable",
      "type": "function"
    },
    {
      "inputs": [],
      "name": "templateCount",
      "outputs": [
        {
          "internalType": "uint256",
          "name": "",
          "type": "uint256"
        }
      ],
      "stateMutability": "view",
      "type": "function"
    },
    {
      "inputs": [
        {
          "internalType": "uint256",
          "name": "",
          "type": "uint256"
        }
      ],
      "name": "templateList",
      "outputs": [
        {
          "internalType": "address",
          "name": "templateAddress",
          "type": "address"
        },
        {
          "internalType": "bool",
          "name": "isActive",
          "type": "bool"
        }
      ],
      "stateMutability": "view",
      "type": "function"
    },
    {
      "inputs": [
        {
          "internalType": "address",
          "name": "newOwner",
          "type": "address"
        }
      ],
      "name": "transferOwnership",
      "outputs": [],
      "stateMutability": "nonpayable",
      "type": "function"
    }
  ],
  "bytecode": "0x608060405260006009553480156200001657600080fd5b50604051620033ed380380620033ed8339810160408190526200003991620004db565b620000443362000152565b6001600160a01b038316158015906200006557506001600160a01b03821615155b80156200007a57506001600160a01b03841615155b620001025760405162461bcd60e51b815260206004820152604760248201527f4552433732314454466163746f72793a20496e76616c69642074656d706c617460448201527f6520746f6b656e2f636f6d6d756e6974792066656520636f6c6c6563746f72206064820152666164647265737360c81b608482015260a4015b60405180910390fd5b6200010d84620001a2565b50620001198362000333565b50600b80546001600160a01b039283166001600160a01b03199182161790915560018054939092169216919091179055506200055f9050565b600080546001600160a01b038381166001600160a01b0319831681178455604051919092169283917f8be0079c531659141344cd1fd0a4f28419497f9722a3daafe3b4186f6b6457e09190a35050565b600080546001600160a01b03163314620001ee5760405162461bcd60e51b81526020600482018190526024820152600080516020620033cd8339815191526044820152606401620000f9565b6001600160a01b0382166200026c5760405162461bcd60e51b815260206004820152603760248201527f4552433732314454466163746f72793a204552433732312074656d706c61746560448201527f2061646472657373283029204e4f5420414c4c4f5745440000000000000000006064820152608401620000f9565b813b620002bc5760405162461bcd60e51b815260206004820152601b60248201527f455243373231466163746f72793a204e4f5420434f4e545241435400000000006044820152606401620000f9565b600160046000828254620002d1919062000538565b90915550506040805180820182526001600160a01b0380851682526001602080840191825260048054600090815260059092529490209251835491511515600160a01b026001600160a81b03199092169216919091171790555490505b919050565b600080546001600160a01b031633146200037f5760405162461bcd60e51b81526020600482018190526024820152600080516020620033cd8339815191526044820152606401620000f9565b6001600160a01b038216620003fd5760405162461bcd60e51b815260206004820152603460248201527f4552433230466163746f72793a204552433732312074656d706c61746520616460448201527f6472657373283029204e4f5420414c4c4f5745440000000000000000000000006064820152608401620000f9565b813b6200044d5760405162461bcd60e51b815260206004820152601a60248201527f4552433230466163746f72793a204e4f5420434f4e54524143540000000000006044820152606401620000f9565b6001600a600082825462000462919062000538565b90915550506040805180820182526001600160a01b03808516825260016020808401918252600a8054600090815260069092529490209251835491511515600160a01b026001600160a81b0319909216921691909117179055549050919050565b80516001600160a01b03811681146200032e57600080fd5b60008060008060808587031215620004f257600080fd5b620004fd85620004c3565b93506200050d60208601620004c3565b92506200051d60408601620004c3565b91506200052d60608601620004c3565b905092959194509250565b600082198211156200055a57634e487b7160e01b600052601160045260246000fd5b500190565b612e5e806200056f6000396000f3fe608060405234801561001057600080fd5b50600436106101a95760003560e01c8063809d8105116100f9578063bbf8d71f11610097578063e5fc01f011610071578063e5fc01f014610490578063ec66e4b214610498578063f2fde38b146104d5578063f887ea40146104e857600080fd5b8063bbf8d71f14610462578063c3e26ce814610475578063c6cf868a1461048857600080fd5b80638f6051af116100d35780638f6051af146103ff578063940516991461041257806395c6030514610447578063a33ef2a61461044f57600080fd5b8063809d81051461038757806382c442041461039a5780638da5cb5b146103ee57600080fd5b80634da00123116101665780636bbd2f3f116101405780636bbd2f3f14610330578063715018a61461034357806372f670f01461034b5780637b20bccf1461037457600080fd5b80634da00123146102db578063557fcfb0146102fd5780635c7059821461032857600080fd5b8063042ab9b3146101ae5780630ffda887146101ec578063226e76151461020157806326705c3c146102345780633315efd11461024b57806344079b4c146102a8575b600080fd5b6101c16101bc366004612769565b6104fb565b6040805182516001600160a01b03168152602092830151151592810192909252015b60405180910390f35b6101ff6101fa366004612769565b610582565b005b61022461020f36600461243a565b60086020526000908152604090205460ff1681565b60405190151581526020016101e3565b61023d600a5481565b6040519081526020016101e3565b6101c1610259366004612769565b6040805180820190915260008082526020820152506000908152600560209081526040918290208251808401909352546001600160a01b0381168352600160a01b900460ff1615159082015290565b6102bb6102b636600461267f565b6105c7565b604080516001600160a01b039384168152929091166020830152016101e3565b6102ee6102e93660046126e2565b610719565b6040516101e3939291906129d4565b61031061030b366004612782565b610917565b6040516001600160a01b0390911681526020016101e3565b60025461023d565b6101ff61033e3660046124b7565b6109b8565b6101ff611126565b61031061035936600461243a565b6007602052600090815260409020546001600160a01b031681565b61023d61038236600461243a565b61115c565b6101ff610395366004612769565b6112bc565b6103cf6103a8366004612769565b6005602052600090815260409020546001600160a01b03811690600160a01b900460ff1682565b604080516001600160a01b0390931683529015156020830152016101e3565b6000546001600160a01b0316610310565b61023d61040d36600461243a565b61132e565b6103cf610420366004612769565b6006602052600090815260409020546001600160a01b03811690600160a01b900460ff1682565b600a5461023d565b6101ff61045d366004612769565b611497565b6101ff610470366004612769565b61150f565b610310610483366004612600565b6115cb565b60095461023d565b60045461023d565b6104ab6104a63660046126e2565b6118b0565b604080516001600160a01b03948516815292841660208401529216918101919091526060016101e3565b6101ff6104e336600461243a565b611ba6565b600b54610310906001600160a01b031681565b60408051808201909152600080825260208201526000828152600660209081526040918290208251808401909352546001600160a01b0381168352600160a01b900460ff16151590820152600a54831180159061055757508215155b61057c5760405162461bcd60e51b815260040161057390612b7d565b60405180910390fd5b92915050565b6000546001600160a01b031633146105ac5760405162461bcd60e51b815260040161057390612c12565b6000908152600660205260409020805460ff60a01b19169055565b6000806106596105d78580612c97565b8080601f016020809104026020016040519081016040528093929190818152602001838380828437600092019190915250610619925050506020870187612c97565b8080601f016020809104026020016040519081016040528093929190818152602001838380828437600092018290525060408b0135935091506115cb9050565b9150610710833561066d6020860186612c47565b61067691612d7d565b6106836040870187612c47565b808060200260200160405190810160405280939291908181526020018383602002808284376000920191909152506106c2925050506060880188612c47565b80806020026020016040519081016040528093929190818152602001838360200280828437600092019190915250610701925050506080890189612c47565b61070a91612d70565b87611c41565b90509250929050565b600080806107ab61072a8780612c97565b8080601f01602080910402602001604051908101604052809392919081815260200183838082843760009201919091525061076c925050506020890189612c97565b8080601f0160208091040260200160405190810160405280939291908181526020018383808284376000920191909152505050506040890135306115cb565b925061086285356107bf6020880188612c47565b6107c891612d7d565b6107d56040890189612c47565b808060200260200160405190810160405280939291908181526020018383602002808284376000920191909152506108149250505060608a018a612c47565b808060200260200160405190810160405280939291908181526020018383602002808284376000920191909152506108539250505060808b018b612c47565b61085c91612d70565b88611c41565b91506001600160a01b038216638b96412b610880602087018761243a565b61088d6020880188612c47565b61089a60408a018a612c47565b6040518663ffffffff1660e01b81526004016108ba9594939291906129f8565b602060405180830381600087803b1580156108d457600080fd5b505af11580156108e8573d6000803e3d6000fd5b505050506040513d601f19601f8201168201806040525081019061090c91906125e7565b905093509350939050565b3360008181526007602052604081205490916001600160a01b03909116146109a05760405162461bcd60e51b815260206004820152603660248201527f455243373231466163746f72793a204f4e4c592045524337323120494e5354416044820152754e43452046524f4d20455243373231464143544f525960501b6064820152608401610573565b6109ae868686868633611c41565b9695505050505050565b805160005b818110156111215760008060008584815181106109dc576109dc612de7565b6020026020010151600001516001600160a01b031663397b37436040518163ffffffff1660e01b815260040160606040518083038186803b158015610a2057600080fd5b505afa158015610a34573d6000803e3d6000fd5b505050506040513d601f19601f82011682018060405250810190610a589190612474565b925092509250600081118015610a7657506001600160a01b03821615155b8015610a8a57506001600160a01b03831615155b15610c0c576040516323b872dd60e01b81526001600160a01b038316906323b872dd90610abf903390309086906004016129d4565b602060405180830381600087803b158015610ad957600080fd5b505af1158015610aed573d6000803e3d6000fd5b505050506040513d601f19601f82011682018060405250810190610b1191906125c5565b610b5d5760405162461bcd60e51b815260206004820152601d60248201527f4661696c656420746f207472616e73666572207075626c6973684665650000006044820152606401610573565b816001600160a01b031663095ea7b3878681518110610b7e57610b7e612de7565b6020908102919091010151516040516001600160e01b031960e084901b1681526001600160a01b03909116600482015260248101849052604401602060405180830381600087803b158015610bd257600080fd5b505af1158015610be6573d6000803e3d6000fd5b505050506040513d601f19601f82011682018060405250810190610c0a91906125c5565b505b6000868581518110610c2057610c20612de7565b602002602001015160c00151118015610c69575060006001600160a01b0316868581518110610c5157610c51612de7565b602002602001015160a001516001600160a01b031614155b8015610ca5575060006001600160a01b0316868581518110610c8d57610c8d612de7565b6020026020010151608001516001600160a01b031614155b15610e9f57858481518110610cbc57610cbc612de7565b602002602001015160a001516001600160a01b03166323b872dd3330898881518110610cea57610cea612de7565b602002602001015160c001516040518463ffffffff1660e01b8152600401610d14939291906129d4565b602060405180830381600087803b158015610d2e57600080fd5b505af1158015610d42573d6000803e3d6000fd5b505050506040513d601f19601f82011682018060405250810190610d6691906125c5565b610db25760405162461bcd60e51b815260206004820152601d60248201527f4661696c656420746f207472616e7366657220636f6e73756d654665650000006044820152606401610573565b858481518110610dc457610dc4612de7565b602002602001015160a001516001600160a01b031663095ea7b3878681518110610df057610df0612de7565b602002602001015160000151888781518110610e0e57610e0e612de7565b602002602001015160c001516040518363ffffffff1660e01b8152600401610e4b9291906001600160a01b03929092168252602082015260400190565b602060405180830381600087803b158015610e6557600080fd5b505af1158015610e79573d6000803e3d6000fd5b505050506040513d601f19601f82011682018060405250810190610e9d91906125c5565b505b858481518110610eb157610eb1612de7565b6020026020010151600001516001600160a01b03166323b872dd3330898881518110610edf57610edf612de7565b6020026020010151604001516040518463ffffffff1660e01b8152600401610f09939291906129d4565b602060405180830381600087803b158015610f2357600080fd5b505af1158015610f37573d6000803e3d6000fd5b505050506040513d601f19601f82011682018060405250810190610f5b91906125c5565b610fa75760405162461bcd60e51b815260206004820152601c60248201527f4661696c656420746f207472616e736665722064617461746f6b656e000000006044820152606401610573565b858481518110610fb957610fb9612de7565b6020026020010151600001516001600160a01b031663fda9dae7878681518110610fe557610fe5612de7565b60200260200101516020015188878151811061100357611003612de7565b60200260200101516040015189888151811061102157611021612de7565b6020026020010151606001518a898151811061103f5761103f612de7565b6020026020010151608001518b8a8151811061105d5761105d612de7565b602002602001015160a001518c8b8151811061107b5761107b612de7565b602090810291909101015160c0015160405160e088901b6001600160e01b03191681526001600160a01b039687166004820152602481019590955260448501939093529084166064840152909216608482015260a481019190915260c401600060405180830381600087803b1580156110f357600080fd5b505af1158015611107573d6000803e3d6000fd5b50505050505050808061111990612db6565b9150506109bd565b505050565b6000546001600160a01b031633146111505760405162461bcd60e51b815260040161057390612c12565b61115a6000611ef0565b565b600080546001600160a01b031633146111875760405162461bcd60e51b815260040161057390612c12565b6001600160a01b0382166111fa5760405162461bcd60e51b815260206004820152603460248201527f4552433230466163746f72793a204552433732312074656d706c617465206164604482015273191c995cdcca0c0a481393d50810531313d5d15160621b6064820152608401610573565b813b6112485760405162461bcd60e51b815260206004820152601a60248201527f4552433230466163746f72793a204e4f5420434f4e54524143540000000000006044820152606401610573565b6001600a600082825461125b9190612d58565b90915550506040805180820182526001600160a01b03808516825260016020808401918252600a8054600090815260069092529490209251835491511515600160a01b026001600160a81b0319909216921691909117179055549050919050565b6000546001600160a01b031633146112e65760405162461bcd60e51b815260040161057390612c12565b60045481111580156112f757508015155b6113135760405162461bcd60e51b815260040161057390612bc6565b6000908152600560205260409020805460ff60a01b19169055565b600080546001600160a01b031633146113595760405162461bcd60e51b815260040161057390612c12565b6001600160a01b0382166113d55760405162461bcd60e51b815260206004820152603760248201527f4552433732314454466163746f72793a204552433732312074656d706c61746560448201527f2061646472657373283029204e4f5420414c4c4f5745440000000000000000006064820152608401610573565b813b6114235760405162461bcd60e51b815260206004820152601b60248201527f455243373231466163746f72793a204e4f5420434f4e545241435400000000006044820152606401610573565b6001600460008282546114369190612d58565b90915550506040805180820182526001600160a01b0380851682526001602080840191825260048054600090815260059092529490209251835491511515600160a01b026001600160a81b0319909216921691909117179055549050919050565b6000546001600160a01b031633146114c15760405162461bcd60e51b815260040161057390612c12565b60045481111580156114d257508015155b6114ee5760405162461bcd60e51b815260040161057390612bc6565b6000908152600560205260409020805460ff60a01b1916600160a01b179055565b6000546001600160a01b031633146115395760405162461bcd60e51b815260040161057390612c12565b600a54811115801561154a57508015155b6115aa5760405162461bcd60e51b815260206004820152602b60248201527f45524332304454466163746f72793a2054656d706c61746520696e646578206460448201526a1bd95cdb9d08195e1a5cdd60aa1b6064820152608401610573565b6000908152600660205260409020805460ff60a01b1916600160a01b179055565b600060045483111580156115de57508215155b6115fa5760405162461bcd60e51b815260040161057390612bc6565b6000838152600560209081526040918290208251808401909352546001600160a01b0381168352600160a01b900460ff1615159082018190526001146116995760405162461bcd60e51b815260206004820152602e60248201527f4552433732314454466163746f72793a20455243373231546f6b656e2054656d60448201526d1c1b185d1948191a5cd8589b195960921b6064820152608401610573565b80516116a490611f40565b91506001600160a01b038216611724576040805162461bcd60e51b81526020600482015260248101919091527f4552433732314454466163746f72793a204661696c656420746f20706572666f60448201527f726d206d696e696d616c206465706c6f79206f662061206e657720746f6b656e6064820152608401610573565b6001600160a01b0382166000818152600760205260409081902080546001600160a01b0319168317905551636cf1dbed60e01b8152839190636cf1dbed906117789033908b908b9030908b90600401612a3c565b602060405180830381600087803b15801561179257600080fd5b505af11580156117a6573d6000803e3d6000fd5b505050506040513d601f19601f820116820180604052508101906117ca91906125c5565b6118335760405162461bcd60e51b815260206004820152603460248201527f4552433732314454466163746f72793a20556e61626c6520746f20696e697469604482015273616c697a6520746f6b656e20696e7374616e636560601b6064820152608401610573565b8660405161184191906129b8565b604051908190038120835133835290916001600160a01b03918216918616907fab79f3a133194dac43d8f36c89aabc54656acb3d2a780060ac9006812e4655659060200160405180910390a46001600260008282546118a09190612d58565b9091555092979650505050505050565b600080806118be8480612c47565b60018181106118cf576118cf612de7565b90506020020160208101906118e4919061243a565b6001600160a01b03166323b872dd33306119016020890189612c47565b600481811061191257611912612de7565b905060200201356040518463ffffffff1660e01b8152600401611937939291906129d4565b602060405180830381600087803b15801561195157600080fd5b505af1158015611965573d6000803e3d6000fd5b505050506040513d601f19601f8201168201806040525081019061198991906125c5565b6119f15760405162461bcd60e51b815260206004820152603360248201527f4661696c656420746f207472616e7366657220696e697469616c20706f6f6c2060448201527262617365746f6b656e206c697175696469747960681b6064820152608401610573565b6119fe61072a8780612c97565b9250611a1285356107bf6020880188612c47565b9150611a1e8480612c47565b6001818110611a2f57611a2f612de7565b9050602002016020810190611a44919061243a565b600b546001600160a01b039182169163095ea7b39116611a676020880188612c47565b6004818110611a7857611a78612de7565b6040516001600160e01b031960e087901b1681526001600160a01b0390941660048501526020029190910135602483015250604401602060405180830381600087803b158015611ac757600080fd5b505af1158015611adb573d6000803e3d6000fd5b505050506040513d601f19601f82011682018060405250810190611aff91906125c5565b506001600160a01b038216635bfe4da0611b1c6020870187612c47565b611b296040890189612c47565b611b338a80612c47565b6040518763ffffffff1660e01b8152600401611b5496959493929190612b34565b602060405180830381600087803b158015611b6e57600080fd5b505af1158015611b82573d6000803e3d6000fd5b505050506040513d601f19601f8201168201806040525081019061090c9190612457565b6000546001600160a01b03163314611bd05760405162461bcd60e51b815260040161057390612c12565b6001600160a01b038116611c355760405162461bcd60e51b815260206004820152602660248201527f4f776e61626c653a206e6577206f776e657220697320746865207a65726f206160448201526564647265737360d01b6064820152608401610573565b611c3e81611ef0565b50565b600083600081518110611c5657611c56612de7565b602002602001015160001415611cbc5760405162461bcd60e51b815260206004820152602560248201527f4552433230466163746f72793a207a65726f20636170206973206e6f7420616c6044820152641b1bddd95960da1b6064820152608401610573565b600a548711158015611ccd57508615155b611ce95760405162461bcd60e51b815260040161057390612b7d565b6000878152600660209081526040918290208251808401909352546001600160a01b0381168352600160a01b900460ff161515908201819052600114611d855760405162461bcd60e51b815260206004820152602b60248201527f4552433230466163746f72793a20455243373231546f6b656e2054656d706c6160448201526a1d1948191a5cd8589b195960aa1b6064820152608401610573565b8051611d9090611f40565b6001600160a01b0381166000818152600860205260409020805460ff19166001179055909250611e285760405162461bcd60e51b815260206004820152603e60248201527f455243373231466163746f72793a204661696c656420746f20706572666f726d60448201527f206d696e696d616c206465706c6f79206f662061206e657720746f6b656e00006064820152608401610573565b86600081518110611e3b57611e3b612de7565b6020026020010151604051611e5091906129b8565b604051908190038120825190916001600160a01b03918216918516907fb51c8cbe199ffe8b0d1d39b62d473569750653cb18b165f77ae423b3900180ad90600090a4600160096000828254611ea59190612d58565b90915550506040805160a081018252888152602081018890529081018690526001600160a01b038416608082015260608101859052611ee48382611fd0565b50509695505050505050565b600080546001600160a01b038381166001600160a01b0319831681178455604051919092169283917f8be0079c531659141344cd1fd0a4f28419497f9722a3daafe3b4186f6b6457e09190a35050565b6000808260601b9050604051733d602d80600a3d3981f3363d3d373d3d3d363d7360601b81528160148201526e5af43d82803e903d91602b57fd5bf360881b60288201526037816000f06040516001600160a01b03821681529093507f117c72e6c25f0a072e36e148df71468ce2f3dbe7defec5b2c257a6e3eb65278c915060200160405180910390a150919050565b604080516003808252608082019092528391600091906020820160608036833701905050905082608001518160008151811061200e5761200e612de7565b6001600160a01b039283166020918202929092010152600180548351921691839190811061203e5761203e612de7565b6001600160a01b039283166020918202929092010152600b5482519116908290600290811061206f5761206f612de7565b60200260200101906001600160a01b031690816001600160a01b031681525050816001600160a01b031663b3998be08460000151856020015184876040015188606001516040518663ffffffff1660e01b81526004016120d3959493929190612a8b565b602060405180830381600087803b1580156120ed57600080fd5b505af1158015612101573d6000803e3d6000fd5b505050506040513d601f19601f8201168201806040525081019061212591906125c5565b61218b5760405162461bcd60e51b815260206004820152603160248201527f4552433230466163746f72793a20556e61626c6520746f20696e697469616c696044820152707a6520746f6b656e20696e7374616e636560781b6064820152608401610573565b50505050565b60006121a461219f84612d35565b612d05565b9050808382526020808301915083868660051b860111156121c457600080fd5b60005b868110156122175781356001600160401b038111156121e557600080fd5b8601601f810189136121f657600080fd5b61220489823586840161229c565b85525092820192908201906001016121c7565b505050509392505050565b600061223061219f84612d35565b9050808382526020808301915083868660051b8601111561225057600080fd5b6000805b878110156122905782356001600160401b03811115612271578283fd5b61227d8a828a016123f0565b8652509383019391830191600101612254565b50505050509392505050565b60006001600160401b038311156122b5576122b5612dfd565b6122c8601f8401601f1916602001612d05565b90508281528383830111156122dc57600080fd5b828260208301376000602084830101529392505050565b600082601f83011261230457600080fd5b8135602061231461219f83612d35565b80838252828201915082860187848660051b890101111561233457600080fd5b60005b8581101561235c57813561234a81612e13565b84529284019290840190600101612337565b5090979650505050505050565b600082601f83011261237a57600080fd5b61238983833560208501612191565b9392505050565b600082601f8301126123a157600080fd5b813560206123b161219f83612d35565b80838252828201915082860187848660051b89010111156123d157600080fd5b60005b8581101561235c578135845292840192908401906001016123d4565b600082601f83011261240157600080fd5b6123898383356020850161229c565b600060a0828403121561242257600080fd5b50919050565b60006060828403121561242257600080fd5b60006020828403121561244c57600080fd5b813561238981612e13565b60006020828403121561246957600080fd5b815161238981612e13565b60008060006060848603121561248957600080fd5b835161249481612e13565b60208501519093506124a581612e13565b80925050604084015190509250925092565b600060208083850312156124ca57600080fd5b82356001600160401b038111156124e057600080fd5b8301601f810185136124f157600080fd5b80356124ff61219f82612d35565b8181528381019083850160e0808502860187018a101561251e57600080fd5b60009550855b858110156125b65781838c03121561253a578687fd5b612542612cdd565b833561254d81612e13565b81528389013561255c81612e13565b818a0152604084810135908201526060808501359082015260808085013561258381612e13565b9082015260a08481013561259681612e13565b9082015260c0848101359082015285529387019391810191600101612524565b50919998505050505050505050565b6000602082840312156125d757600080fd5b8151801515811461238957600080fd5b6000602082840312156125f957600080fd5b5051919050565b6000806000806080858703121561261657600080fd5b84356001600160401b038082111561262d57600080fd5b612639888389016123f0565b9550602087013591508082111561264f57600080fd5b5061265c878288016123f0565b93505060408501359150606085013561267481612e13565b939692955090935050565b6000806040838503121561269257600080fd5b82356001600160401b03808211156126a957600080fd5b6126b586838701612428565b935060208501359150808211156126cb57600080fd5b506126d885828601612410565b9150509250929050565b6000806000606084860312156126f757600080fd5b83356001600160401b038082111561270e57600080fd5b61271a87838801612428565b9450602086013591508082111561273057600080fd5b61273c87838801612410565b9350604086013591508082111561275257600080fd5b5061275f86828701612428565b9150509250925092565b60006020828403121561277b57600080fd5b5035919050565b600080600080600060a0868803121561279a57600080fd5b8535945060208601356001600160401b03808211156127b857600080fd5b818801915088601f8301126127cc57600080fd5b6127db89833560208501612222565b955060408801359150808211156127f157600080fd5b6127fd89838a016122f3565b9450606088013591508082111561281357600080fd5b61281f89838a01612390565b9350608088013591508082111561283557600080fd5b5061284288828901612369565b9150509295509295909350565b8183526000602080850194508260005b8581101561288d57813561287281612e13565b6001600160a01b03168752958201959082019060010161285f565b509495945050505050565b600081518084526020808501945080840160005b8381101561288d5781516001600160a01b0316875295820195908201906001016128ac565b600081518084526020808501808196508360051b8101915082860160005b8581101561291957828403895261290784835161298c565b988501989350908401906001016128ef565b5091979650505050505050565b81835260006001600160fb1b0383111561293f57600080fd5b8260051b8083602087013760009401602001938452509192915050565b600081518084526020808501945080840160005b8381101561288d57815187529582019590820190600101612970565b600081518084526129a4816020860160208601612d8a565b601f01601f19169290920160200192915050565b600082516129ca818460208701612d8a565b9190910192915050565b6001600160a01b039384168152919092166020820152604081019190915260600190565b6001600160a01b0386168152606060208201819052600090612a1d908301868861284f565b8281036040840152612a30818587612926565b98975050505050505050565b600060018060a01b03808816835260a06020840152612a5e60a084018861298c565b8381036040850152612a70818861298c565b95821660608501525092909216608090910152509392505050565b600060a0820160a0835280885180835260c08501915060c08160051b86010192506020808b0160005b83811015612ae25760bf19888703018552612ad086835161298c565b95509382019390820190600101612ab4565b505085840381870152505050612af88188612898565b90508281036040840152612b0c8187612898565b90508281036060840152612b20818661295c565b90508281036080840152612a3081856128d1565b606081526000612b4860608301888a612926565b8281036020840152612b5b818789612926565b90508281036040840152612b7081858761284f565b9998505050505050505050565b60208082526029908201527f4552433230466163746f72793a2054656d706c61746520696e64657820646f656040820152681cdb9d08195e1a5cdd60ba1b606082015260800190565b6020808252602c908201527f4552433732314454466163746f72793a2054656d706c61746520696e6465782060408201526b191bd95cdb9d08195e1a5cdd60a21b606082015260800190565b6020808252818101527f4f776e61626c653a2063616c6c6572206973206e6f7420746865206f776e6572604082015260600190565b6000808335601e19843603018112612c5e57600080fd5b8301803591506001600160401b03821115612c7857600080fd5b6020019150600581901b3603821315612c9057600080fd5b9250929050565b6000808335601e19843603018112612cae57600080fd5b8301803591506001600160401b03821115612cc857600080fd5b602001915036819003821315612c9057600080fd5b60405160e081016001600160401b0381118282101715612cff57612cff612dfd565b60405290565b604051601f8201601f191681016001600160401b0381118282101715612d2d57612d2d612dfd565b604052919050565b60006001600160401b03821115612d4e57612d4e612dfd565b5060051b60200190565b60008219821115612d6b57612d6b612dd1565b500190565b6000612389368484612191565b6000612389368484612222565b60005b83811015612da5578181015183820152602001612d8d565b8381111561218b5750506000910152565b6000600019821415612dca57612dca612dd1565b5060010190565b634e487b7160e01b600052601160045260246000fd5b634e487b7160e01b600052603260045260246000fd5b634e487b7160e01b600052604160045260246000fd5b6001600160a01b0381168114611c3e57600080fdfea26469706673582212209eabbab6d216c7835ab6c48250762d9b9df9368efa30c1ba6112bbd55a3f24ff64736f6c634300080700334f776e61626c653a2063616c6c6572206973206e6f7420746865206f776e6572",
  "linkReferences": {},
  "deployedLinkReferences": {}
}